:102FA3002535642E20005B4449525D0A0045727248
:102FB3006F7220686173206F636375726564004488
:102FC300656275673A3A204F6666736574203020F0
:102FD3006F6620536563746F7220302069732025F8
:102FE300780D0A00466F756E64204D42522E2E2EC8
:102FF3000D0A0044656275673A3A204F6666736549
:10300300742030206F662052656C61746976652088
:10301300536563746F727320697320256C780D0A8E
:103023000044656275673A3A2074656D70382069AB
:10303300732025780D0A004572726F722042504248
:10304300206E6F7420466F756E64210D0A00425026
:103053004220466F756E64210D0A004279746573D0
:103063005065725365633A3A2025780D0A00636C04
:1030730075737465725F6E756D6265723A3A202579
:103083006C780066697273745F7365635F6E756DE8
:073093003A3A20256C780099
:073CEF007B007A00799D22A1
:0F3C8100E558240BFFE43557FEAB5EAA5FA96040
:083C90008F828E83121B0CFFD2
:013C98002209
:0A3A2B008E688F698B6A8A6B896CC4
:103A3500E4F570F56FF56EF56DF571AB6AE56C251E
:103A450069F9E56B3568FAC374019571FFE4940073
:103A5500FEE92FF9EA3EFA121AF3FBAF70AE6FAD2D
:103A65006EAC6D7808121D518F708E6F8D6E8C6DDA
:103A7500AF03E4E5704FF570E56FF56FE56EF56E34
:0F3A8500E56DF56D0571E571B402B0AE6FAF7010
:013A9400220F
:0A394F008E688F698B6A8A6B896CA1
:10395900E4F570F56FF56EF56DF571AB6AE56C25FB
:1039690069F9E56B3568FAC374039571FFE494004E
:10397900FEE92FF9EA3EFA121AF3FBAF70AE6FAD0A
:103989006EAC6D7808121D518F708E6F8D6E8C6DB7
:10399900AF03E4E5704FF570E56FF56FE56EF56E11
:1039A900E56DF56D0571E571B404B0AF70AE6FAD3D
:0339B9006EAC6D84
:0139BC0022E8
:082801008F468E458D448C4387
:10280900755A0185475B85485CE4F553F554F551E4
:10281900F552789EE6B4020F78AF121D948F508E50
:102829004F8D4E8C4D800D789DE6FFE48F50F54F0E
:10283900F54EF54D85464C85454B85444A854349BA
:10284900AF4CAE4BAD4AAC4978A1E6F56C08E6F55C
:102859006D855A6E855B6F855C70123A958F59E567
:102869005960030229DDAB5AAA5BA95CAF52AE518C
:10287900123C908F55E55564E5700302294FE555E3
:10288900700302294FE552240BFFE43551FEAB5A80
:10289900AA5BA95C123C908F57E557540E6003025E
:1028A900294F0554E554700205537BFF7A2F79A30C
:1028B90085536BF56C1217F9E4F5567E00E5522540
:1028C90056FFEE3551FEAB5AAA5BA95C123C908FBC
:1028D900581200030556E556C3940840DEE5573003
:1028E900E4307556087E00E5522556FFEE3551FE57
:1028F900AB5AAA5BA95C123C908F5812000305568B
:10290900E556C3940B40DE7BFF7A2F79A91217F99C
:1029190080347F2E1200037556087E00E552255635
:10292900FFEE3551FEAB5AAA5BA95C123C908F5859
:102939001200030556E556C3940B40DE7F0D1200C5
:10294900037F0A12000374202552F552E43551F52C
:1029590051D3E55294FEE5519401406FE54C2401B1
:10296900F54CE4354BF54BE4354AF54AE43549F580
:1029790049C3E54C9546FFE54B9545FEE54A954427
:10298900FDE5499543FCAB50AA4FA94EA84DD3127A
:102999001D2D4031AF4CAE4BAD4AAC4978A1E6F59F
:1029A9006C08E6F56D855A6E855B6F855C70123A29
:1029B900958F59E5596007E4F553F554F555E4F554
:1029C90051F5528006435380E4F555E555600302FD
:1029D900286F800E7BFF7A2F79B01217F9E4F5532F
:0629E900F554AE53AF549B
:0129EF0022C5
:08218D008F468E458D448C4302
:10219500755E0185495F854A60E4F559F55AF5573D
:1021A500F558F556F555F554F553789EE6B4020FF6
:1021B50078AF121D948F528E518D508C4F800D78B3
:1021C5009DE6FFE48F52F551F550F54F85464E8556
:1021D500454D85444C85434BAF4EAE4DAD4CAC4B58
:1021E50078A1E6F56C08E6F56D855E6E855F6F8511
:1021F5006070123A958F5DE55D6003022391AB5ED9
:10220500AA5FA960AF58AE57123C908F5BE55B643F
:10221500E57003022301E55B7003022301123C8193
:102225008F5CE55C540E6003022301055AE55A7084
:1022350002055965487004E55965476003022301A5
:10224500789EE664047050E5582415123C85E48FA9
:1022550056F555F554F553AE55AD54AC53780812B3
:102265001D518F568E558D548C53E5582414123CB0
:1022750085E4E5564FF556E555F555E554F554E530
:1022850053F553AF56AE55AD54FC7808121D518F1A
:10229500568E558D548C53E558241B123C85E4E528
:1022A500564FF556E555F555E554F554E553F553B3
:1022B500AF56AE55AD54FC7808121D518F568E554C
:1022C5008D548C53E558241A123C85E4E5564FF598
:1022D50056E555F555E554F554E553F553123C814E
:1022E5008F5CE55C30E412E556F556E555F555E5A8
:1022F50054F554E5534410F553E4F55B7420255823
:10230500F558E43557F557D3E55894FEE55794014C
:102315004071E54E2401F54EE4354DF54DE4354C5F
:10232500F54CE4354BF54BC3E54E9546FFE54D952C
:1023350045FEE54C9544FDE54B9543FCAB52AA5152
:10234500A950A84FD3121D2D4036AF4EAE4DAD4C02
:10235500AC4B78A1E6F56C08E6F56D855E6E855F9C
:102365006F856070123A958F5DE55D600CE4F556FA
:10237500F555F554755380F55BE4F557F55880032D
:10238500E4F55BE55B6003022203800AE4F556F59C
:1023950055F554755380E4FFFEFDFCAB56AA55A9CF
:1023A50054A853C3121D2D7009F556F555F55475EE
:0A23B5005380AF56AE55AD54AC5343
:0123BF0022FB
:041E4A008E438F44F0
:101E4E00756C02756D00AA06A907756E018A6F89F9
:101E5E00707F007E007D007C00123A958F46AA436B
:101E6E00A9447B01E4FFFE123C908F457BFF7A2F45
:101E7E0079C285456B1217F9E54564EB7003021FB5
:101E8E001DE54564E97003021F1D7BFF7A2F79E77C
:101E9E001217F9AA43A9447B017FC67E0112394F5E
:101EAE008F638E628D618C607BFF7A2F79F68F6ED9
:101EBE008E6D8D6C8C6B1217F9AF63AE62AD61AC2B
:101ECE0060756C02756D00756E0185436F8544708B
:101EDE00123A958F46AA43A9447B01E4FFFE123CB9
:101EEE00908F457BFF7A30792485456B1217F9E583
:101EFE004564EB6011E54564E9600B7BFF7A307950
:101F0E003A1217F980097BFF7A3079511217F9AA24
:101F1E0043A9447B017F0B7E00123A2B78A1EEF68B
:101F2E0008EFF67BFF7A30795E8E6BF56C1217F93F
:101F3E00AA43A9447B017F0D7E00123C90789DA69A
:101F4E0007AA43A9447F0E123A2B8E478F48AA4305
:101F5E00A9447B017F107E00123C908F49AA43A9B1
:101F6E00447F11123A2B8E4A8F4BAA43A9447B0110
:101F7E007F137E00123A2B8E4C8F4DAA43A9447BC1
:101F8E00017F167E00123A2B8E4E8F4FAA43A94424
:101F9E007B017F207E0012394F8F538E528D518CD4
:101FAE0050AA43A9447B017F247E0012394F8F57DC
:101FBE008E568D558C54AA43A9447B017F2C7E00EE
:101FCE0012394F8F5F8E5E8D5D8C5CE4E548256324
:101FDE00FFE5473562FEE43561FDE43560FC78AB24
:101FEE00121DADE54BAE4A7805C333CE33CED8F9CC
:101FFE00FF78A1E6FC08E6FD24FFFBEC34FFCB2FB7
:10200E00FFEB3EFE121B6DE4FCFD78AF121DADAF73
:10201E0049E4FCFDFEAB57AA56A955A854121BFA6B
:10202E00A804A905AA06AB07E4FCFDEB2548FFEAC8
:10203E003547FEED39FDEC38FC78AF121DA0EF2BC5
:10204E00FFEE3AFEED39FDEC38FCEF2563FFEE3581
:10205E0062FEED3561FDEC3560FC78A7121DADE535
:10206E005F24FEFFE55E34FFFEE55D34FFFDE55CBB
:10207E0034FFFCC004A905AA06AB07789DE6FFE471
:10208E00FCFDFED000121BFA78A7121DA0EF2BFF4D
:10209E00EE3AFEED39FDEC38FC78A3121DAD78A0BA
:1020AE007602E54F454E600DE4854F5B854E5AF541
:1020BE0059F558800C85575B85565A855559855468
:1020CE0058E54D454C600FAE4CAF4DE4FCFD900411
:1020DE0000121DB9800EAF53AE52AD51AC509004EC
:1020EE0000121DB9AF49E4FCFDFEAB5BAA5AA9591B
:1020FE00A858121BFA78AF121DA0EF2BFBEE3AFA7E
:10210E00ED39F9EC38F8E4FCFDEB2548FBEA3547F0
:10211E00FAED39F9EC38F8900400E0FCA3E0FDA3E9
:10212E00E0FEA3E0C39BFFEE9AFEED99FDEC98FC5A
:10213E00A3121DB9789DE6FFE4FCFDFEF8F9FAAB9B
:10214E0007900404E0FCA3E0FDA3E0FEA3E0FF1271
:10215E001C858F678E668D658C64E47FF57EFFFD32
:10216E00FCAB67AA66A965A864C3121D2D50097839
:0E217E009E76027546F18004789E7604AF4688
:01218C002230
:0838DE008F4A8E498D488C478A
:1038E600E4FFFEFDFCAB4AAA49A948A847C3121D3E
:1038F6002D700F78A3121D948F4E8E4D8D4C8C4BD0
:10390600803EE54A24FEFFE54934FFFEE54834FFE4
:10391600FDE54734FFFCC004A905AA06AB07789D60
:10392600E6FFE4FCFDFED000121BFA78A7121DA0EC
:10393600EF2BF54EEE3AF54DED39F54CEC38F54BEF
:08394600AF4EAE4DAD4CAC4B91
:01394E002256
:083695008F268E258D248C2365
:10369D00E47F04FEFDFCAB26AA25A924A823121B5A
:1036AD00FAC004C005C006C00778A1E6FE08E6FF13
:1036BD00E4FCFDF8F9AA06AB07D007D006D005D07B
:1036CD0004121C8578AB121DA0EF2BFFEE3AFEED18
:1036DD0039FDEC38FC78A1E6F56C08E6F56D756EF4
:1036ED000185276F852870123A95E47F04FEFDFC55
:1036FD00AB26AA25A924A823121BFAC004C005C015
:10370D0006C00778A1E6FE08E6FFE4FCFDF8F9AA7D
:10371D0006AB07D007D006D005D004121C85AE022B
:10372D00AF03AA27A9287B0112394FEFEEEDEC5418
:02373D000FFC7F
:01373F002267
:083437008F0B8E0A8D098C0831
:10343F00E4F50E7BFF7A3079718F6E8E6D8D6C8C0B
:10344F006B1217F9AF0BAE0AAD09AC081238DE8F4D
:10345F00168E158D148C137BFF7A3079868F6E8EB6
:10346F006D8D6C8C6B1217F98516128515118514DD
:10347F001085130F789DE6FFE4EF2516FFE4351551
:10348F00FEE43514FDE43513FCAB12AA11A910A804
:10349F000FC3121D2D6036AF12AE11AD10AC0F78E9
:1034AF00A1E6F56C08E6F56D756E01850C6F850D5F
:1034BF0070123A958F0EE5122401F512E43511F5CD
:1034CF0011E43510F510E4350FF50F80A7AF0BAEF3
:1034DF000AAD09AC08850C27850D281236958F0B80
:1034EF008E0A8D098C0874FFFFFEFD7C0FAB0BAAB3
:1034FF000AA909A808C3121D2D6003023453AF0E89
:01350F002299
:103BD2008D49EF70077F40123CFB80057F40123D0C
:103BE200127F80123D12AF49123D1E7F80123CFBB4
:0A3BF2007FFF123D1E7F40023D12CE
:103B30007D38E4FF123BD27F017E00123BFC7D48C2
:103B4000E4FF123BD27F017E00123BFC7D01E4FFCB
:103B5000123BD27F027E00123BFC7D0CE4FF123B45
:083B6000D27F017E00023BFC54
:083859008D438B448A4589462A
:10386100EFF46010EF4480FDE4FF123BD27F017E54
:1038710000123BFCE5437038F547AB44AA45A94625
:10388100854782F583121B0CF548E548604EFD7FA4
:1038910001123BD27F017E00123BFC0547AB44AADB
:1038A10045A946854782758300121B0CF54880DACD
:1038B100E4F547E547C395435022AB44AA45A946E1
:1038C100854782758300121B0CF548FD7F01123B71
:0C38D100D27F017E00123BFC054780D72F
:0138DD0022C8
:053CF600EFF452A022D2
:043D0A00EF42A022C2
:10351000E4F54374452543F8E4F60543E543B40B6D
:10352000F274FFF553F552F551F550E4F543123CB2
:10353000E78F44E544C394304017E544D3943950B1
:103540001074452543F8A6440543AF441200038098
:1035500050E54464086005E544B47F1A154374459A
:103560002543F8E4F67F08123C227F20123C227F9C
:1035700008123C22802BE544640D6005E544B40A42
:103580001D7B007A00794512327D8F538E528D510A
:103590008C507F0D123C227F0A123C228003E4F5FE
:1035A00044E543B40A1B7B007A00794512327D8FD3
:1035B000538E528D518C507F0D123C227F0A123C4B
:1035C0002274FFFFFEFDFCAB53AA52A951A850C3C1
:1035D000121D2D700302352EAF53AE52AD51AC50BB
:0135E00022C8
:033D1E008F802271
:053CFB00EFF452B022BD
:043D0E00EF42A022BE
:043D1200EF42B022AA
:083A95008F6B8E6A8D698C684D
:103A9D00E4F572123D008F717F10123D05AF6BAED4
:103AAD006AAD69AC68A971A801121D518F778E7628
:103ABD008D758C747F11122DA48F72E572700FAB02
:103ACD006EAA6FA970AF6DAE6C122EA48F727F109F
:0C3ADD00123D16E57260037572F0AF72C6
:013AE90022BA
:1025F3005344204361726420496E697469616C6954
:102603007A6174696F6E202E2E2E200A0D00434DC1
:1026130044302073656E74202E2E2E200052657375
:10262300706F6E7365203D2025322E3262580A0D7D
:1026330000434D44382073656E74202E2E2E2000E7
:10264300526573706F6E7365203D200025322E3204
:102653006258200A0D0056657273696F6E2031202F
:1026630053442043617264206465746563746564D4
:102673002E0A0D005374616E6461726420436170AD
:10268300616369747920436172642064657465636E
:102693007465642E0A0D0025322E326258200056CE
:1026A300657273696F6E20322053442043617264F4
:1026B3002064657465637465642E0A0D00434D449C
:1026C30035382073656E74202E2E2E200041434D25
:1026D3004434312073656E74202E2E2E20005469ED
:1026E3006D656F7574203D20256C75200A0D0048BB
:1026F300696768204361706163697479204361721B
:10270300642044657465637465640A0D00537461E1
:102713006E646172642043617061636974792043FC
:102723006172642044657465637465640A0D0043D3
:102733004D4431362073656E74202E2E2E200052A8
:102743006573706F6E7365203D2025322E3262589B
:10275300200A0D00426C6F636B2073697A652073E6
:10276300657420746F203531322062797465730A81
:102773000D0053442054696D656F75742045727262
:102783006F7200496C6C6567616C20436F6D6D619E
:102793006E640A0D00526573706F6E736520457227
:1027A300726F72004461746120546F6B656E2045D3
:1027B30072726F7200496E636F6D70617469626CDF
:1027C3006520566F6C7461676500436172642069AC
:1027D3007320496E61637469766500535049206FB5
:1027E300722054696D656F7574204572726F720043
:0E27F300556E6B6E6F776E204572726F7200BE
:0B2D9900E4F577F576F575F5747F3AE8
:022DA4008F732B
:102DA600E4F579E573C394404003022E9EE573442F
:102DB60040F5787B007A00797AFF123AEA8F7BE554
:102DC6007B701CAF77AE76AD75AC747818121D3E6D
:102DD6008F787B007A00797A123AEA8F7B800375C6
:102DE6007987E579702FE57B702BE577F577E576C2
:102DF600F576E575F575E4F574AF77AE76AD75AC39
:102E0600747810121D3E8F787B007A00797A123A18
:102E1600EA8F7B8003757987E579702DE57B7029CC
:102E2600E577F577E576F576E4F575F574AF77AE83
:102E360076AD75AC747808121D3E8F787B007A00EB
:102E4600797A123AEA8F7B8003757987E57970186B
:102E5600E57B7014E577FFE48F78FB7A00797AAF2B
:102E660078123AEA8F7B8003757987E579702CE5CD
:102E76007B7028E5737005757895800DE573B40849
:102E86000575788780037578017B007A00797AAFBB
:0D2E960078123AEA8F7B8003757982AF795C
:012EA300220C
:0735E100FB7A0079467F012F
:0835E8008F578B588A59895A4C
:1035F000E4F55EF55FF55B7B007A00795D7FFF1295
:103600003AEA8F5C055FE55F7002055EE55DB4FF39
:103610000AE55F455E6004E55C60DCE55C600575BD
:103620005B878061E55F455E7005755B818056ABA9
:1036300058AA59A95AE55D121B39E55D6004640179
:103640007040E557D39401403C755E00755F01C33F
:10365000E55F9557E55E9400502B7B007A00795D1D
:103660007FFF123AEA8F5CAB58AA59A95A855F824C
:10367000855E83E55D121B4B055FE55F70D1055EDE
:1036800080CD755B837B007A00795D7FFF123AEA1B
:043690008F5CAF5B41
:013694002213
:0A2EA4008E738F748B758A76897720
:102EAE00E4F57BF57CF5797B007A00797A7FFF1269
:102EBE003AEA8F78057CE57C7002057BE57A30E78F
:102ECE000AE57C457B6004E57860DCE57860067594
:102EDE007987022F93E57C457B7006757981022FE9
:102EEE0093E57A6003022F90F57BF57C7B007A00E8
:102EFE00797A7FFF123AEA8F78057CE57C700205BD
:102F0E007BE57AB4FF0AE57C457B6004E57860DCFE
:102F1E00E5786005757987806CE57C457B70057575
:102F2E0079818061E57A64FE7053F57BF57CC3E5AB
:102F3E007C9574E57B957350287B007A00797A7FB7
:102F4E00FF123AEA8F78AB75AA76A977857C8285CF
:102F5E007B83E57A121B4B057CE57C70D1057B806B
:102F6E00CD7B007A00797A7FFF123AEA8F787B0068
:102F7E007A00797A7FFF123AEA8F78800875798421
:102F8E0080037579837B007A00797A7FFF123AEAA3
:042F9E008F78AF7900
:012FA200220C
:10102400E4F544781A76FF7F10123D167BFF7A258B
:1010340079F31217F9E4F5437B007A00794E7FFFC8
:10104400123AEA8F450543E543C3940A40EA7F8098
:10105400123CF67BFF7A2679111217F97F10123DA4
:1010640005E4F577F576F575F574FF122DA48F4533
:10107400E54570131235E18F457BFF7A267920858B
:10108400466B1217F980057F10123CF67F10123D53
:10109400167F80123D0AE5456002F544E54460038D
:1010A4000211837F80123CF67BFF7A267934121773
:1010B400F97F10123D05E47577AA757601F575F58B
:1010C400747F08122DA48F45E5456003021174FB5B
:1010D4007A0079467F051235E88F457F10123D1658
:1010E4007F80123D0AE545603F7BFF7A26794312F3
:1010F40017F97BFF7A26794F85466B1217F9E54578
:10110400B48320E546B4051BE4F544781A76097BDC
:10111400FF7A2679591217F97BFF7A267977121705
:10112400F9805C85454480577BFF7A267943121702
:10113400F9E4F5437BFF7A26799A74462543F8E669
:10114400F56B1217F90543E543C3940540E67F0D9B
:101154001200037F0A120003E54A64AA600375457E
:1011640083781A76027BFF7A2679A21217F9800F08
:101174007F10123D167F80123D0A7F10123CF6E567
:1011840044600302120E7F80123CF67BFF7A2679BC
:10119400C01217F97F10123D05122D998F45E545B0
:1011A4007053FB7A0079467F051235E88F457F102E
:1011B400123D167F80123D0A7BFF7A26794312176F
:1011C400F9E4F5437BFF7A26799A74462543F8E6D9
:1011D400F56B1217F90543E543C3940540E67F0D0B
:1011E4001200037F0A120003E54854FC64FC6014F7
:1011F400754585800F7F10123D167F80123D0A7F52
:1012040010123CF6E5456002F544E5446003021221
:10121400FE781AE6B4020CE4F552F551F550754F18
:10122400408009E4F552F551F550F54FE4F556F5D3
:1012340055F554F5537F20123CF67BFF7A2679D07E
:101244001217F97F10123D05E4F577F576F575F57B
:10125400747F37122DA48F45E54570051235E18F53
:1012640045E54664016004E546701385527785516F
:1012740076855075854F747F29122DA48F45E545D9
:1012840070031235E17F10123D16E5562401F55620
:10129400E43555F555E43554F554E43553F553E444
:1012A400FFFEFDFCAB56AA55A954A853C3121D2D2D
:1012B4007003754581E54630E004E5456085E54504
:1012C40070137F20123D0A7BFF7A26792085466BB6
:1012D4001217F9800A7F80123D0A7F10123CF67BB8
:1012E400FF7A2679E185566E85556D85546C855354
:1012F4006B1217F9E5456002F544E54460030214F6
:101304000B781AE66402600302140B7F80123CF629
:101314007BFF7A2679C01217F97F10123D05122D32
:10132400998F45E54560030213F1FB7A0079467F06
:10133400051235E88F457F10123D167F80123D0A55
:101344007BFF7A2679431217F9E4F5437BFF7A266B
:10135400799A74462543F8E6F56B1217F90543E5C7
:1013640043C3940540E67F0D1200037F0A12000375
:10137400E54720E706754586021400E54754C0FF9B
:10138400BFC00FE4781AF67BFF7A2679F21217F9B8
:10139400806A781A76097BFF7A2779101217F97F09
:1013A40080123CF67BFF7A2779321217F97F1012EC
:1013B4003D05E4F577757602F575F5747F10122D09
:1013C400A48F45E54570351235E18F457F10123DF8
:1013D400167F80123D0A7BFF7A27794285466B127D
:1013E40017F97BFF7A2779571217F9800F7F1012AC
:1013F4003D167F80123D0A7F10123CF6E5456007DA
:10140400F544AF441239BDE5446004FF1239BDAF61
:011414004493
:0114150022B4
:053D0000781AE6FF2225
:1039BD008F57E557B481097BFF7A2779750217F97F
:1039CD00E557B482097BFF7A2779860217F9E55707
:1039DD00B483097BFF7A2779980217F9E557B484E8
:1039ED00097BFF7A2779A70217F9E557B485097B7B
:1039FD00FF7A2779B80217F9E557B486097BFF7A64
:103A0D002779CD0217F9E557B487097BFF7A277916
:0E3A1D00DE0217F97BFF7A2779F31217F922E0
:1037CD00E4F543AB07AA06A905A804FF7E407D19C1
:1037DD007C01121C85EFD39402500575C37080696E
:1037ED00EFD39402400BEFD39404500575C3718051
:1037FD0058EFD39404400BEFD39408500575C37262
:10380D008047EFD39408400BEFD39410500575C348
:10381D00738036EFD39410400BEFD3942050057581
:10382D00C3F08025EFD39420400BEFD39440500587
:10383D0075C3F18014EFD39440400BEFD3948050B7
:0B384D000575C3F2800375430FAF4305
:01385800224D
:103AEA00E4FDFC8FC5AFC4757D008F7E0DBD00015E
:103AFA000CE57E54F07004ED4C70EAED4C601BE569
:103B0A007E5470700AE5C5121B39E4FCFD801474FA
:103B1A00FF121B397C007D01800974FF121B397C5E
:053B2A00007D80AF05E5
:013B2F002273
:043D1600EF429022C6
:053D0500EFF4529022D2
:103BFC005389F0438901C2A9758CF4758A3DC28D35
:103C0C00D28C308DFDC28CEF1F70011ED3EF94004F
:063C1C00EE940050E322CB
:103B680053873F438780C2AC759852E4F59BFCFDB0
:103B78007BC0FAF9F8121BFAA804A905AA06AB0734
:103B8800E4FFFE7D2F7C0D121C85EFF404F59A7579
:053B98009B1ED29922E2
:103C2200E4FDFC0DBD00010C209904ED4C70F4ED97
:0F3C32004C60088F99AE07C29980027EF1AF06F1
:013C41002260
:073CE7003098FDAF99C2986F
:013CEE0022B3
:103B9D00E4F5C8FCFDFEFB7A4079197801121BFA99
:103BAD00E47B707A17F9F8121C85C3E49FFFE49E3D
:103BBD00AD07AE05F5CDF5CB8ECC8ECAC2CFD2AD4D
:043BCD00D2AFD2CAD7
:013BD10022D1
:043D1A0043870122B8
:103C4200E4FF123C6BC291D290E4FF123C6BD29122
:0F3C52003091FDA29092042004037F00227F0195
:013C61002240
:022B49008F56A5
:102B4B00E47893F608F608F608F6C20008F6C20118
:102B5B00E55BD394004021855A648559638558629F
:102B6B00855761855B65E4F566F567F568F569AFD3
:102B7B00561229F07897A607D290D2912091030292
:102B8B002C82209003022C82123C99E55625E0788A
:102B9B0093F64401F6C290E408F6087608E4FF12B7
:102BAB003C6BC291789516E6FF7893E6FEA8070872
:102BBB008002C313D8FC139201A201123C67D2917D
:102BCB003091FDA2909200A200300101B350047825
:102BDB009776017895E660057897E660C0123C42DF
:102BEB00EF60037F0222E55CD3940040697897E69F
:102BFB00706478957608E4FF123C6BC29178951659
:102C0B00D29008E6FF25E0F6E4FF123C6BD2913040
:102C1B0091FDA2909200A200E433789646F618E656
:102C2B0070D408E6FFAB5DAA5EA95F7894E6F582E7
:102C3B00758300EF121B4B789406D55C04D2018090
:102C4B0002C201E4FF123C6BC291A201123C67D29B
:102C5B009120919280FB7897E66401601AE4FF1251
:102C6B003C6BC291C290E4FF123C6BD2913091FD50
:0B2C7B007F01123C6BD2907897E6FFBF
:012C8600222B
:093C6200139203A2039290E4FF07
:103C6B00308E03308FFDC28EEF700A758DFF758B12
:063C7B00C3C28FD28E22AD
:103C990053890F438910C2AB758DFF758BC3C28FD2
:033CA900D28E2296
:1029F000E47898F608F608F608F6C20208F6C2036C
:102A0000D290D291209103022B24209003022B24F8
:102A1000123C99EF25E07898F6C290E408F6087623
:102A200008E4FF123C6BC291789A16E6FF7898E6AC
:102A3000FEA807088002C313D8FC123C62D2913072
:102A400091FDA2909202A202300301B35004789C3F
:102A50007601789AE66005789CE660C5123C42EF04
:102A600060037F0222E565D39400404C789A760893
:102A70007898A664E4FF123C6BC291789A16E6FF40
:102A80007898E6FEA807088002C313D8FC123C62BF
:102A9000D2913091FDA2909202A202300301B35074
:102AA00004789C7601789AE66005789CE660C51209
:102AB0003C42EF60037F0222E566D39400406578D4
:102AC0009CE67060789A7608AB67AA68A96918E6F0
:102AD000F582758300121B0C7898F6E4FF123C6BAC
:102AE000C291789A16E6FF7898E6FEA80708800259
:102AF000C313D8FC123C62D2913091FDA290920295
:102B0000A202300301B35004789C7601789AE66003
:102B100005789CE660C51566789906123C42EF6020
:102B2000977F0222789CE664016019E4FF123C6BF7
:102B3000C291C290E4123C6BD2913091FD7F0112A0
:082B40003C6BD290789CE6FF8B
:012B4800226A
:1031910052656365697665642056616C7565203D8D
:1031A1002025322E3262580A0D002D2D2D2D2D2D68
:1031B1002D2D2D2D2D2D2D2D2D2D2D2D2D2D436FE6
:1031C1006E666967203120476F212121212D2D2D28
:1031D1002D2D2D2D2D2D2D2D2D2D2D2D2D2D2D2D1E
:1031E1002D0D0A00576520676F742070726F626C35
:1031F100656D7321002D2D2D2D2D2D2D2D2D2D2D79
:103201002D2D2D2D2D2D2D2D2D436F6E66696720B2
:103211003220476F212121212D2D2D2D2D2D2D2DB9
:103221002D2D2D2D2D2D2D2D2D2D2D2D0D0A002D3D
:103231002D2D2D2D2D2D2D2D2D2D2D2D2D2D2D2DBD
:103241002D2D2D436F6E666967203320476F212135
:1032510021212D2D2D2D2D2D2D2D2D2D2D2D2D2DB5
:103261002D2D2D2D2D2D0D0A0046696E6973686572
:0C3271006420496E69742E2E2E0D0A0098
:10335B00E4F544E4756401F563F562F561756501A7
:10336B00F566F5677568007569457F431229F0E4CA
:10337B00F55AF559F558F557F55B755C01F55D7523
:10338B005E00755F487F43122B498F431544E5431D
:10339B006004E54470BD7BFF7A31799185486B12EF
:1033AB0017F97BFF7A3179AB1217F97BFF7A00792A
:1033BB002E7F431237408F43E54360097BFF7A3101
:1033CB0079E51217F97FE87E03123BFC7BFF7A311C
:1033DB0079F61217F97BFF7A0F79CC7F43123740BE
:1033EB008F43E54360097BFF7A3179E51217F97F4B
:1033FB00E87E03123BFC7BFF7A3279301217F97BA4
:10340B00FF7A0F79FE7F431237408F43E543600904
:10341B007BFF7A3179E51217F97FE87E03123BFCCB
:0B342B007BFF7A32796A1217F9AF4379
:013436002273
:083740008F4B8B4C8A4D894E22
:10374800E4F554F555755232AB4CAA4DA94E855542
:1037580082855483121B0CF5510555E555700205F9
:1037680054F582855483121B0CF54F0555E55570A9
:10377800020554E4855164F563F562F561756501E8
:10378800756601F56775680075694FAF4B1229F0CA
:103798008F531552E5536004E55270D7E485515AAA
:1037A800F559F558F557755B01755C01F55D755E62
:1037B80000755F50AF4B122B49E551F46004E55298
:0437C8007083AF5308
:0137CC0022DA
:10002E003A012A0428002900200021002200230082
:10003E00240025002600270028012802218F2803EE
:10004E002100280428052806280728082809280A38
:10005E00280B280C20802190280D20002100280E2E
:10006E0020812191280F2000219228102100281193
:10007E0021932812210028132814281520822816CF
:10008E0020002817281828192194281A2195281B92
:10009E002196281C2100281D2083281E2000281FA1
:1000AE0021972820210028212822282328242825AA
:1000BE002826282728282829282A2084282B20008B
:1000CE00282C282D282E282F28302831283220851C
:1000DE002833200028342835283628372198283808
:1000EE0021002839283A283B283C283D283E283F25
:1000FE002840284128422843284428452846284796
:10010E0028482849284A284B284C284D284E284F45
:10011E0028502851285228532854285528562857F5
:10012E0028582859285A285B285C285D285E285FA5
:10013E002860286128622199286321002864286597
:10014E002866286728682869286A286B286C286D15
:10015E00286E286F287028712872287328742875C5
:10016E002876287728782879287A287B287C287D75
:10017E00287E287F28802881288228832884288525
:10018E002886288728882889288A288B288C288DD5
:10019E00288E288F289028912086289220872893B1
:1001AE002000289428952896289728982899289AE8
:1001BE00289B289C289D289E289F219A28A02100B4
:1001CE0028A128A228A328A428A528A628A728A8BD
:1001DE0028A928AA28AB28AC28AD28AE28AF28B06D
:1001EE0028B128B228B328B428B528B628B728B81D
:1001FE0028B9208828BA200028BB208928BC2000D6
:10020E0028BD28BE28BF28C028C128C228C3219BCC
:10021E0028C4210028C528C628C728C828C928CA26
:10022E0028CB28CC28CD28CE28CF28D028D128D20C
:10023E0028D328D428D528D628D728D828D928DABC
:10024E0028DB28DC28DD28DE28DF28E028E1208ACC
:10025E0028E2208B28E3200028E428E528E628E77A
:10026E0028E828E928EA28EB28EC28ED28EE28EFE4
:10027E0028F028F128F228F328F428F528F628F794
:10028E0028F8208C28F92000219C28FA219D28FB93
:10029E00208D219E28FC208E219F28FD20002100EC
:1002AE0028FE28FF2A0128002201239524892507EC
:1002BE0026A42707280121C72200238026C4270C45
:1002CE0028022009211C220426AA270A280320001E
:1002DE002100220023A626A0270728042805200592
:1002EE00238426B427092806200022032300248114
:1002FE0025C026AB270A280721AE22002395248984
:10030E00250726A42700280821482201238026C479
:10031E00270C280920092104220426AA270A280AC4
:10032E0020002100220023A826A42707280B280C32
:10033E0021402220238026C4270C280D222426C6E5
:10034E00280E219E220026C8280F200921022214E1
:10035E0026AA270A2810200521002200238426B46D
:10036E0027092811200021012300240125C026ABD6
:10037E00270A281221C32395248925072620270022
:10038E002813200321C223832626270D281421B3E8
:0E039E0022082815200021C6220023952600E3
:1003AC0027082816210023002496250326AA270AAD
:1003BC002817204221B623802489250728182000DD
:1003CC0021002394260E2819200F238426B42709F4
:1003DC00281A2000239326A82703281B2628270049
:1003EC00281C21012300240125C026AB270A281D27
:1003FC0021C523952489250726202700281E2100A6
:10040C0023942600270A281F260E28202003217952
:10041C00220123832626270D282121322822200081
:10042C00210422002380240025FC26AA270A282345
:10043C00210023002500282421A3220D2380249EA3
:10044C00253B2825204221572201248925072826CF
:10045C0020002143220D240025382827210822982A
:10046C002395248925072624270028282042219318
:10047C002201238026AA270A28292003217E220470
:10048C0023832626270D282A200021B0220023951D
:10049C0026A02707282B21002300240C250426AA9C
:1004AC00270A282C21022380248625C326AB282D3D
:1004BC002042219722012489250726AA282E2000D4
:1004CC0021002200241F2504282F21B223952489E2
:1004DC0025072620270428302042218B2204238044
:1004EC0026AA270A2831200021B12200239526A014
:1004FC002707283220032175220423832626270D63
:10050C002833200521002200238426B4270928340F
:10051C00200021602300240125C026AB270A2835A2
:10052C00210822982395248925072624270028367C
:10053C0021BC2200283721A3220D2300240125C031
:10054C0026AB270A28382160220023802400253876
:10055C0026AA2839210622982395248925072624A2
:10056C002700283A21BE2200283B200521002384A5
:10057C0026B42709283C200021602300240125C033
:10058C0026AB270A283D21422201239524892507E1
:10059C0026242700283E210C229826A42707283F32
:1005AC0021082840216022002300240125C026AB0D
:1005BC00270A2841210C22982395248925072624D3
:1005CC0027002842200521002200238426B4270975
:1005DC002843200023802400251026AB270A28441A
:1005EC00212222012395248925072624270028452A
:1005FC002100220023002404251226AA270A2846BB
:10060C00200321D422052383248925072626270DA0
:10061C0028472000216022002300240125C026AB9E
:10062C00270A284821B32395248925072600270863
:10063C002849210023002409250026AA270A284A34
:10064C00210223802486253B284B204221DD2205D4
:10065C0024892507284C200021002200241F250076
:10066C00284D21B323952489250726202700284EC1
:10067C00210023002497250326AA270A284F20426D
:10068C0021E22205238024892507285020002110EF
:10069C0022002300248025CC26AB285121002240A7
:1006AC0023B42489250726AA27042852220023B024
:1006BC002692270928532114220123952600270866
:1006CC002854214823A4262A27002855210022003B
:1006DC0023002409250026AA270A2856210823804E
:1006EC002486253B285720422111220724892507DF
:1006FC002858200021002200241F250028592114ED
:10070C00220123952489250726202700285A211603
:0E071C0026022709285B2100220023002480EA
:10072A00254826AA270A285C23A0248925072614F7
:10073A002709285D2480255026A42704285E21162F
:10074A0022012395248925072700285F21042200F6
:10075A002300249C257826AA270A28602143220DF3
:10076A00240125C426AB286121032200241528620E
:10077A0021002400250026AA2863215E23952489C6
:10078A00250726102709286421032300241525C4D8
:10079A0026AB270A2865210023802400250626AADD
:1007AA002866248F25E326AB2867204221CD22071D
:1007BA002489250726AA2868200021602200230010
:1007CA00240125C026AB286921002380248F250314
:1007DA0026AA286A204221DD220724892507286BB8
:1007EA0020002143220D2300240125C026AB286CBA
:1007FA00210022002400250426AA286D2003217F37
:10080A0022012383248925072626270D286E2162A3
:10081A00286F200521002200238426B42709287086
:10082A00200021062395260027082871210123008C
:10083A002497253B26AA270A28722042210E22083D
:10084A0023802489250728732003213C220B238334
:10085A002626270D2874200021032200239526022C
:10086A002708287521272300248125C426AB270AB7
:10087A002876210023802409254826AA287721588A
:10088A00223423A324892507262A27002878210031
:10089A00220023A026002709287921072380240380
:1008AA00253926AA270A287A21042300241C253858
:1008BA00287B2107238024832539287C210323953B
:1008CA002489250726022708287D21272300248139
:1008DA0025C426AB270A287E21002380240925481F
:1008EA0026AA287F2158223423A324892507262AC9
:1008FA0027002880210622002300248125C0269370
:10090A0027012881210023802489254826AA270A2D
:10091A0028822002216622082300240025662883D3
:10092A002000210022002380241F2502288421067A
:10093A002489250726DC270C2885210023AA26AA34
:10094A00270A288623B62600270828872380248694
:10095A00253B26AA270A288821052489250726DC7B
:10096A00270C2889210023AA26AA270A288A23B61F
:10097A0026002708288B23802486253B26AA270AB7
:10098A00288C2042217B220824892507288D2000D3
:10099A0021002200230024012582288E210524819A
:1009AA0025C226AB288F200321932208238324897A
:1009BA0025072626270D289020002105220023003E
:1009CA00248125C026132701289121002380248908
:1009DA00254826AA270A28922002217E22082300D7
:1009EA002400256628932000210022002380241F4A
:1009FA002502289421052489250726DC270C289519
:100A0A00210023AA26AA270A289623B62600270801
:100A1A00289723802486253B26AA270A2898210579
:100A2A002489250726DC270C2899210023AA26AA2F
:100A3A00270A289A2380241F2502289B21012300A4
:100A4A00248125C226AB289C2003219322082383D4
:100A5A00248925072626270D289D20002104220007
:100A6A00239526122708289E216023C426AA270434
:100A7A00289F210023C02600270928A0204221CB35
:100A8A002208238026AA270A28A12070215422B8E6
:0E0A9A0023952612270828A2200221CC22082C
:100AA800238026AA270A28A3200321CA220F2383EA
:100AB8002626270D28A42000210022002300248CAC
:100AC800250C26AA270A28A521042482257828A6E9
:100AD80021002380248925482612270428A72003DB
:100AE80021DE220F238325072626270D28A820008C
:100AF800210122002300249C257826AA270A28A958
:100B0800210023802481254028AA200321CF220FF9
:100B18002383248925072626270D28AB2070210842
:100B280022B8239526A0270428AC200321D4220F1D
:100B380023832626270D28AD2127220B28AE2070D7
:100B4800216322B823952612270828AF2000210107
:100B580022002380248625CB26AB270A28B02042F2
:100B680021DD22082489250726AA28B1200021187A
:100B78002280239526A4270028B2200321D9220FFA
:100B880023832626270D28B32070210A22B823950F
:100B980026A0270028B4200221E02208238026AAC4
:100BA800270A28B52070210A22B8239526A02700F5
:100BB80028B621542602270828B7200021182280A9
:100BC80026A4270028B82100220023802480254855
:100BD80026AA270A28B92070215E22B823952489DD
:100BE80025072612270828BA200021002200238082
:100BF8002409254B26AA270A28BB2070215F22B882
:100C08002395248925072610270828BC20002100C1
:100C180022002300241C258326AB270A28BD200395
:100C2800213222092383248925072626270D28BE59
:100C380020002100220023002482258C26AB270ACD
:100C480028BF200321252209238324892507262656
:100C5800270D28C0204221BC238026AA270A28C1A4
:100C68002000210122002300240125C026AB28C230
:100C78002070210F22B823952489250726202700D4
:100C880028C3200321E3220F23832626270D28C407
:100C9800200521002200238426B4270928C5200026
:100CA800210323952614270828C621A623A4262A2B
:100CB800270528C7210023A02644270928C821186A
:100CC800226D2380249E257B26AA270A28C9204234
:100CD8002113220B2489250728CA200021AE2200CF
:100CE80023952624270028CB21002203238024874C
:100CF800257B26AA270A28CC20422116220B2489E4
:100D0800250728CD200021AE220023952624270080
:100D180028CE20052100238426B4270928CF2003C4
:100D2800210D220B23832626270D28D02000210001
:100D38002200230024802602270028D123802409AA
:100D48002548261E28D221582234233324802507FB
:100D5800262A28D32100220023002680271028D401
:100D680021102363262A270028D52100236026A8DE
:100D7800271228D621AF224C230026C8270C28D7B3
:100D8800210022002680270528D823802486253B99
:100D9800261E270028D92042211C220E2300248049
:100DA800250728DA20002135222926C4270C28DB2C
:100DB8002002211D220E261E270028DC2000217F6C
:100DC800223426C4270C28DD210022002390249FEA
:100DD80025042610270A28DE2300248425002680DF
:100DE800271028DF2106236324802507262A2700C9
:100DF80028E021002380248926AA270A28E1200543
:100E0800238426B4270928E22070216122B823957B
:0E0E18002612270828E3200021012200238053
:100E2600248625C326AB270A28E4204221CE220F9A
:100E36002489250726AA28E52070215022B8239563
:100E46002612270828E6200521002200238426B43E
:100E5600270928E72070216422B82395261227083F
:100E660028E82000210122002380248625C326AB02
:100E7600270A28E9204221D3220F2489250726AAFA
:100E860028EA2070215122B823952612270828EB3C
:100E9600200521002200238426B4270928EC20708F
:100EA600216522B823952612270828ED2000210166
:100EB60022002380248625C326AB270A28EE20425B
:100EC60021D8220F2489250726AA28EF207021522F
:100ED60022B823952612270828F020052100220093
:100EE600238426B4270928F12070216122B823958E
:100EF6002602270828F220002101220023802486CA
:100F060025C326AB270A28F3204221DD220F248998
:100F1600250726AA28F42070215022B823952602F8
:100F2600270828F5200521002200238426B4270956
:100F360028F6200021012380248625CB26AB270A0C
:100F460028F7204221E1220F2489250726AA28F81E
:100F56002000210222002300248125C426AB28F983
:100F6600210023802489254826AA28FA20052384DF
:100F7600250726B4270928FB2070214E22B8239581
:100F86002610270828FC2000210022002380248622
:100F960025C326AB270A28FD204221E7220F2489F4
:100FA600250726AA28FE200021BB220023952620FD
:100FB600270028FF20052100238426B427092A08B4
:100FC6001001FFFFFFFF3A00643A65BB083A09BB10
:100FD60050105267517705A1180454015521070096
:100FE600060C0B03501051005204610F64556555F1
:100FF60005A11804FFFFFFFF5407551006090B0251
:1010060061055006650052B86400510005A10D0047
:0E10160018040C05460748077201FFFFFFFF94
:0D3CCE00C28C758C7CE4F58AC28DD28C22EC
:10309A008F468E458D448C43123CEF8B178A1889D4
:1030AA0019AF46AE45AD44AC4378C1121DADAF462B
:1030BA00AE45AD44AC431238DE78C5121DAD78B3C7
:1030CA00121DC50000000078B3121D9478C5121DA8
:1030DA00A0EB2FFFEA3EFEE93DFDE83CFCAB17AA58
:1030EA0018A919900004121BC2F56D85F06C756E53
:1030FA0001756F00757000123A9578B3121D94EF3E
:10310A002401FFE43EFEE43DFDE43CFC78B3121DDD
:10311A00AD78B9121DC50000000078B3121D94786D
:10312A00C5121DA0EB2FFFEA3EFEE93DFDE83CFC7F
:10313A00AB17AA18A919900004121BC2F56D85F0E5
:10314A006C756E01756F02757000123A9578B3123C
:10315A001D94EF2401FFE43EFEE43DFDE43CFC78CF
:10316A00B3121DAD78BD121DC500000000E478B78A
:10317A00F60876017F0C123B9D78B8E67003C2CA46
:07318A002243870180F322BC
:03002B00021416A6
:10141600C0E0C0F0C083C082C0D075D000C000C09C
:0D14260001C002C003C004C005C006C0071D
:10143300C2CF123CCE78B7E6B40800400302177C53
:1014430090144AF828287302147C02146202173499
:1014530002169002155802163602146F0216EA306D
:10146300920302177C78B7760002177C309203024E
:10147300177C78B7760402177C30920302150F307D
:101483008D0302150FD29378BBE6FE08E62400F520
:101493008274003EF583E0FF7B007A007922123AE2
:1014A300EAC29378B9121D94EF2401FFE43EFEE4EF
:1014B3003DFDE43CFC78B9121DADE47FFF7E01FDE8
:1014C300FC78B9121DA0D3121D2D40ADE47FFF7E21
:1014D30001FDFC78BD121DA0D3121D2D4025AB17B5
:1014E300AA18A919121AF3FFE4FCFDFE78B3121D22
:1014F300A0C3121D2D700678B77602800A78B776DE
:1015030003800478B77604D28D02147C2092030200
:10151300177C78B7E6600302177C7FFF7E01FDFC32
:1015230078BD121DA0D3121D2D500302177CAB17DB
:10153300AA18A919121AF3FFE4FCFDFE78B3121DD1
:10154300A0C3121D2D700778B7760202177C78B7F7
:10155300760302177C3092030215EB308D030215DC
:10156300EBD29378BFE6FE08E62400F58274023ED0
:10157300F583E0FF7B007A007922123AEAC293787E
:10158300BD121D94EF2401FFE43EFEE43DFDE43C67
:10159300FC78BD121DADE47FFF7E01FDFC78BD121A
:1015A3001DA0D3121D2D40ADE47FFF7E01FDFC780D
:1015B300B9121DA0D3121D2D4025AB17AA18A919C6
:1015C300121AF3FFE4FCFDFE78B3121DA0C3121D33
:1015D3002D700678B77607800A78B7760580047889
:1015E300B77600D28D02155820920302177C78B784
:1015F300E66404600302177C7FFF7E01FDFC78B97B
:10160300121DA0D3121D2D500302177CAB17AA186D
:10161300A919121AF3FFE4FCFDFE78B3121DA0C34F
:10162300121D2D700778B7760702177C78B77605F9
:1016330002177C78B3121D9478C5121DA0EB2FFFFF
:10164300EA3EFEE93DFDE83CFCAB17AA18A9199058
:101653000004121BC2F56D85F06C756E01756F0089
:10166300757000123A9578B3121D94EF2401FFE4CC
:101673003EFEE43DFDE43CFC78B3121DAD78B912A7
:101683001DC50000000078B7760602177C78B312F8
:101693001D9478C5121DA0EB2FFFEA3EFEE93DFD28
:1016A300E83CFCAB17AA18A919900004121BC2F559
:1016B3006D85F06C756E01756F02757000123A9549
:1016C30078B3121D94EF2401FFE43EFEE43DFDE4F4
:1016D3003CFC78B3121DAD78BD121DC5000000009F
:1016E30078B7760102177C78C1121D9475270075AF
:1016F300280012369578C1121DAD74FFFFFEFD7CE4
:101703000F78C1121DA0C3121D2D601C78C1121DBC
:10171300941238DE78C5121DAD78B3121DC50000D2
:10172300000078B77606805178B876001876068080
:101733004878C1121D9475270275280012369578D2
:10174300C1121DAD74FFFFFEFD7C0F78C1121DA0F9
:10175300C3121D2D601C78C1121D941238DE78C58A
:10176300121DAD78B3121DC50000000078B77601D5
:09177300800778B87600187601B1
:10177C00D007D006D005D004D003D002D001D000C1
:0B178C00D0D0D082D083D0F0D0E0326B
:102C8700446F6E6520696E6974616C697A696E67F5
:102C97002075617274210D0A00446F6E6520696E9C
:102CA7006974616C697A696E67204C4344210D0A27
:102CB700005374617274696E67205350490D0A009E
:102CC700446F6E6520696E6974616C697A696E67B5
:102CD70020535441303133210D0A00496E70757409
:102CE70020456E74727920233A2000496E76616C14
:102CF70069642073656C656374696F6E2E20506C10
:102D0700656173652073656C656374206120766106
:102D17006C696420656E7472792E00456E747279E1
:102D27002069732061206469726563746F72792EFC
:102D37002E2E4F70656E696E67206E6F772E2E2E62
:102D47000D0A00456E7472792069732061206669E7
:102D57006C652E2E2E4F70656E696E67206E6F77CD
:102D67002E2E2E0D0A005344204361726420496EB3
:102D770069742E2E2E005374642E20436170616394
:102D87006974790048696768204361706163697491
:022D97007900C1
:1023C000123CEF8B408A418942758E0C758F017FDC
:1023D0000F123D0E7FE0123D0A7F10123CF6E478AA
:1023E00083F608F67883E6FE08E6FFE4FCFD7B60F2
:1023F0007AEAF9F8C3121D17400A788406E670E4F9
:10240000180680E07F10123D0A7F807E25123B680F
:102410007BFF7A2C79871217F9123B307BFF7A2CDD
:1024200079A01217F97BFF7A2D796DE4FDFF123840
:10243000597F807E1A7D067C001237CD7885A607ED
:102440007BFF7A2C79B81217F912335B7BFF7A2C59
:1024500079C71217F97885E6600C7F10123CF67F79
:1024600053123C2280FE7F40123CF61210247885E5
:10247000EFF6600C7F10123CF67F43123C2280FE88
:102480007F40123D0A7F407E787D7D7C011237CDF2
:102490007885EFF6600C7F10123CF67F50123C22DC
:1024A00080FEE47883F608F67883E6FE08E6FFC34C
:1024B000EE9402501574002FF58274003EF583747B
:1024C000FFF006E670E2180680DE123D007886EF27
:1024D000F6BF090F7BFF7A2D797DE4FD7F4012382E
:1024E0005980117886E6700C7BFF7A2D798BFD7F01
:1024F000401238597E007F00121E4A7885A607AB2D
:1025000040AA41A942900006121D64788B121DADAD
:10251000788B121D94754700754800122801E4FC61
:10252000FD788F121DAD7BFF7A2C79E21217F9121C
:102530003510787F121DADE4FFFEFDFC787F121D83
:10254000A0D3121D2D4010788F121D94787F121D7C
:10255000A0D3121D2D40137BFF7A2C79F21217F9AC
:10256000123510787F121DAD80CD7F80123CF67839
:102570008B121D947881E6FA08E68A47F54875497A
:1025800000754A0012218D7887121DAD7887121DC3
:1025900094E4FFFEFDEC5410FCE4FBFAF9F8C312DE
:1025A0001D2D602A7BFF7A2D79221217F978871268
:1025B0001D94EFEEEDEC540FFC7887121DAD78877B
:1025C000121D941238DE788B121DAD0225107BFF90
:1025D0007A2D794A1217F97887121D94EFEEEDECF7
:1025E000540FFC7887121DAD7887121D9412309A13
:0325F000022510B1
:03000000023CDBE4
:0C3CDB00787FE4F6D8FD7581C80223C094
:101AF300BB010689828A83E0225002E722BBFE02F1
:091B0300E32289828A83E4932223
:101B0C00BB010CE58229F582E5833AF583E022508E
:101B1C0006E92582F8E622BBFE06E92582F8E222D8
:0D1B2C00E58229F582E5833AF583E49322F2
:101B3900BB010689828A83F0225002F722BBFE018B
:021B4900F32285
:101B4B00F8BB010DE58229F582E5833AF583E8F0D0
:101B5B00225006E92582C8F622BBFE05E92582C87C
:021B6B00F22264
:101B6D00BC000BBE0029EF8DF084FFADF022E4CC5C
:101B7D00F875F008EF2FFFEE33FEEC33FCEE9DEC25
:101B8D00984005FCEE9DFE0FD5F0E9E4CEFD22ED6B
:101B9D00F8F5F0EE8420D21CFEADF075F008EF2FB5
:101BAD00FFED33FD4007985006D5F0F222C398FDA6
:051BBD000FD5F0EA2243
:101BC200BB0110E58229F582E5833AF583E0F5F061
:101BD200A3E0225009E92582F886F008E622BBFE3E
:101BE2000AE92582F8E2F5F008E222E5832AF58384
:081BF200E993F5F0A3E9932249
:101BFA00E88FF0A4CC8BF0A42CFCE98EF0A42CFC8A
:101C0A008AF0EDA42CFCEA8EF0A4CDA8F08BF0A407
:101C1A002DCC3825F0FDE98FF0A42CCD35F0FCEB66
:101C2A008EF0A4FEA9F0EB8FF0A4CFC5F02ECD392B
:0F1C3A00FEE43CFCEAA42DCE35F0FDE43CFC2298
:101C490075F008758200EF2FFFEE33FECD33CDCC52
:101C590033CCC58233C5829BED9AEC99E5829840D5
:101C69000CF582EE9BFEED9AFDEC99FC0FD5F0D6B2
:101C7900E4CEFBE4CDFAE4CCF9A88222B800C1B9DC
:101C89000059BA002DEC8BF084CFCECDFCE5F0CB1A
:101C9900F97818EF2FFFEE33FEED33FDEC33FCEB53
:101CA90033FB10D703994004EB99FB0FD8E5E4F90E
:101CB900FA227818EF2FFFEE33FEED33FDEC33FCFB
:101CC900C933C910D7059BE99A4007EC9BFCE99AEF
:101CD900F90FD8E0E4C9FAE4CCFB2275F010EF2F34
:101CE900FFEE33FEED33FDCC33CCC833C810D70734
:101CF9009BEC9AE899400AED9BFDEC9AFCE899F86F
:0E1D09000FD5F0DAE4CDFBE4CCFAE4C8F92201
:101D1700EB9FF5F0EA9E42F0E99D42F0EC6480C843
:061D270064809845F022E3
:101D2D00EB9FF5F0EA9E42F0E99D42F0E89C45F00C
:011D3D002283
:101D3E00E8600FECC313FCED13FDEE13FEEF13FF83
:031D4E00D8F122A7
:101D5100E8600FEFC333FFEE33FEED33FDEC33FCF0
:031D6100D8F12294
:101D6400BB010DE58229F582E5833AF583021DEC7A
:101D74005007E92582F8021D94BBFE07E92582F885
:101D8400021DF8E58229F582E5833AF583021E04F3
:0C1D9400E6FC08E6FD08E6FE08E6FF227B
:0D1DA000E6FB08E6F908E6FA08E6CBF822B3
:0C1DAD00ECF608EDF608EEF608EFF62262
:0C1DB900ECF0A3EDF0A3EEF0A3EFF0229D
:101DC500D083D082E493F608740193F608740293E5
:091DD500F608740393F67404731C
:10000300EFB40A07740D12000E740A309811A89900
:10001300B8130CC2983098FDA899C298B811F6305D
:0700230099FDC299F5992235
:10179700E577246BF8E60577227868300702786BDF
:1017A700E475F001121E14021AF32000EB7F2ED20B
:1017B700008018EF540F2490D43440D4FF30040B2A
:1017C700EF24BFB41A0050032461FFE578600215C7
:1017D70078057BE57B7002057A30070D7868E4753C
:1017E700F001121E14EF021B390200037403D20723
:1017F7008003E4C207F5778B688A69896AE4F5781C
:10180700F57AF57BE57860077F201217D280F575AA
:1018170079FFC201C200C202C203C205C206C208E2
:101827001217A0FF700D3007057F001217E3AF7B7B
:10183700AE7A22B4255FC2D5C2041217A0FF24D006
:10184700B40A00501A75F00A787830D50508B6FF43
:101857000106C6A426F620D5047002D20380D92437
:10186700CFB41A00EF5004C2E5D2040219E3D20143
:1018770080C6D20080C0D20280BCD2D580BAD20541
:1018870080B47F201217D22002077401B578004078
:10189700F1121797FF1217D202180BD208D206803F
:1018A70095121797FB121797FA121797F94A4B7069
:1018B7000679B47A1A7BFF20022EE578602A7E002B
:1018C7008E82758300121B0C60060EEE657970F030
:1018D700C2D5EBC0E0EAC0E0E9C0E0EE121A2AD0B8
:1018E700E0F9D0E0FAD0E0FB121AF3FF60AAEBC0F0
:1018F700E0EAC0E0E9C0E01217D2D0E02401F9D055
:10190700E03400FAD0E0FBE5790460DCD579D980D2
:10191700877BFF7A1A7926D202809C791080027918
:1019270008C206C2088008D2D5790A8004790AC29B
:10193700D5E579047002F579E4FAFDFEFF121797F1
:10194700FC7B08200113121797FD7B1030000A1249
:101957001797FE121797FF7B20EC3382D592D5504D
:1019670013C3E43000069FFFE49EFEE42001039DBD
:10197700FDE49CFCE4CBF8C201EC700CCFCECDCCDF
:10198700E824F8F870F38017C3EF33FFEE33FEED6A
:1019970033FDEC33FCEB33FB994002FB0FD8E9EB4B
:1019A700300105F8D0E0C448B201C0E00AEC4D4E62
:1019B7004F78207B0070C2EAB5790040BCC0E012C6
:1019C7001A2CD0F0D0E0200104C4C0E0C4B201C09A
:1019D700F01217BBD0F0D5F0EB02180B121E24182B
:1019E700A85319225818794C18754219264F192EE1
:1019F70044192E49188E4319345519184619184594
:101A07001918471AD450187D2D18812E18A42B1891
:101A1700852318A2201AC22A183D480000189C3FA7
:101A27003F3F00790AA2D5200314300509B91002F7
:101A37000404B9080104A2D52006025001042002BB
:051A4700689202B57871
:101A4C00005034C0E07F203003197F30A2027206B0
:101A5C007205500F121A83C202C206C205C2087F59
:101A6C0030800F300503E9C0E01217D2300503D0E7
:101A7C00E0F9D0E0B578CC3005177F30B9100C12F6
:101A8C0017D27F583004077F788003B908031217E8
:101A9C00D23002057F2D0217D27F202008F87F2B31
:101AAC002006F322920280CF286E756C6C29002DD3
:101ABC0050434958D2011217973001F8C201787877
:101ACC0030D50108F602183D1217972403B405000F
:101ADC004001E4901ABB931217C3743A1217C3D285
:071AEC0003757804021922C2
:10327D008B548A558956AB54AA55A956121AF3FF89
:10328D00123CAC500D74012556F556E43555F555E7
:10329D0080E4D200AB54AA55A956121AF3FF642B41
:1032AD006004EFB42D1BAB540556E556AA557002BC
:1032BD00055514F9121AF3642D6003D38001C392DE
:1032CD0000E4F55AF559F558F557AB54AA55A956DA
:1032DD00121AF3FF123CBF505CE47F0AFEFDFCABFB
:1032ED005AAA59A958A857121BFAC8ECC8EDC0E044
:1032FD00EEC0E0EFC0E0AB54AA55A956121AF3FF89
:10330D003395E0FEEF24D0FFEE34FFFEE4FCFDD05C
:10331D00E0FBD0E0FAD0E0F9EB2FF55AEA3EF55993
:10332D00ED39F558EC38F55774012556F556E43559
:10333D0055F555809530000AAF5AAE59AD58AC577A
:0E334D00800BAF5AAE59AD58AC57121DDE22A0
:0E1DDE00C3E49FFFE49EFEE49DFDE49CFC2216
:0C1DEC00E0FCA3E0FDA3E0FEA3E0FF226A
:0C1DF800E2FC08E2FD08E2FE08E2FF2227
:101E0400E493FC740193FD740293FE740393FF2224
:101E1400FAE6FB0808E6F925F0F618E6CA3AF622CF
:101E2400D083D082F8E4937012740193700DA3A34D
:101E340093F8740193F5828883E473740293686061
:061E4400EFA3A3A380DF61
:0F3CBF00EFC394304007EF943A50028001C322C4
:103CAC00EFC394094005EF940E4003BF2003D3806B
:033CBC0001C3221F
:00000001FF
