:103411002535642E20005B4449525D0A00457272D5
:103421006F7220686173206F636375726564004415
:10343100656275673A3A204F66667365742030207D
:103441006F6620536563746F722030206973202585
:10345100780D0A00466F756E64204D42522E2E2E55
:103461000D0A0044656275673A3A204F66667365D6
:10347100742030206F662052656C61746976652016
:10348100536563746F727320697320256C780D0A1C
:103491000044656275673A3A2074656D7038206939
:1034A100732025780D0A004572726F7220425042D6
:1034B100206E6F7420466F756E64210D0A004250B4
:1034C1004220466F756E64210D0A0042797465735E
:0E34D1005065725365633A3A2025780D0A0063
:073CA0007B007A00799D22F0
:0F3C3200E558240BFFE43557FEAB5EAA5FA9608F
:083C41008F828E83121B0CFF21
:013C49002258
:0A39DC008E688F698B6A8A6B896C14
:1039E600E4F570F56FF56EF56DF571AB6AE56C256E
:1039F60069F9E56B3568FAC374019571FFE49400C3
:103A0600FEE92FF9EA3EFA121AF3FBAF70AE6FAD7C
:103A16006EAC6D7808121D518F708E6F8D6E8C6D29
:103A2600AF03E4E5704FF570E56FF56FE56EF56E83
:0F3A3600E56DF56D0571E571B402B0AE6FAF705F
:013A4500225E
:0A3900008E688F698B6A8A6B896CF0
:10390A00E4F570F56FF56EF56DF571AB6AE56C254A
:10391A0069F9E56B3568FAC374039571FFE494009D
:10392A00FEE92FF9EA3EFA121AF3FBAF70AE6FAD59
:10393A006EAC6D7808121D518F708E6F8D6E8C6D06
:10394A00AF03E4E5704FF570E56FF56FE56EF56E60
:10395A00E56DF56D0571E571B404B0AF70AE6FAD8C
:03396A006EAC6DD3
:01396D002237
:082801008F468E458D448C4387
:10280900755A0185475B85485CE4F553F554F551E4
:10281900F552789EE6B4020F78AF121D948F508E50
:102829004F8D4E8C4D800D789DE6FFE48F50F54F0E
:10283900F54EF54D85464C85454B85444A854349BA
:10284900AF4CAE4BAD4AAC4978A1E6F56C08E6F55C
:102859006D855A6E855B6F855C70123A468F59E5B6
:102869005960030229DDAB5AAA5BA95CAF52AE518C
:10287900123C418F55E55564E5700302294FE55532
:10288900700302294FE552240BFFE43551FEAB5A80
:10289900AA5BA95C123C418F57E557540E600302AD
:1028A900294F0554E554700205537BFF7A34791199
:1028B90085536BF56C1217F9E4F5567E00E5522540
:1028C90056FFEE3551FEAB5AAA5BA95C123C418F0B
:1028D900581200030556E556C3940840DEE5573003
:1028E900E4307556087E00E5522556FFEE3551FE57
:1028F900AB5AAA5BA95C123C418F581200030556DA
:10290900E556C3940B40DE7BFF7A3479171217F929
:1029190080347F2E1200037556087E00E552255635
:10292900FFEE3551FEAB5AAA5BA95C123C418F58A8
:102939001200030556E556C3940B40DE7F0D1200C5
:10294900037F0A12000374202552F552E43551F52C
:1029590051D3E55294FEE5519401406FE54C2401B1
:10296900F54CE4354BF54BE4354AF54AE43549F580
:1029790049C3E54C9546FFE54B9545FEE54A954427
:10298900FDE5499543FCAB50AA4FA94EA84DD3127A
:102999001D2D4031AF4CAE4BAD4AAC4978A1E6F59F
:1029A9006C08E6F56D855A6E855B6F855C70123A29
:1029B900468F59E5596007E4F553F554F555E4F5A3
:1029C90051F5528006435380E4F555E555600302FD
:1029D900286F800E7BFF7A34791E1217F9E4F553BC
:0629E900F554AE53AF549B
:0129EF0022C5
:08218D008F468E458D448C4302
:10219500755E0185495F854A60E4F559F55AF5573D
:1021A500F558F556F555F554F553789EE6B4020FF6
:1021B50078AF121D948F528E518D508C4F800D78B3
:1021C5009DE6FFE48F52F551F550F54F85464E8556
:1021D500454D85444C85434BAF4EAE4DAD4CAC4B58
:1021E50078A1E6F56C08E6F56D855E6E855F6F8511
:1021F5006070123A468F5DE55D6003022391AB5E28
:10220500AA5FA960AF58AE57123C418F5BE55B648E
:10221500E57003022301E55B7003022301123C32E2
:102225008F5CE55C540E6003022301055AE55A7084
:1022350002055965487004E55965476003022301A5
:10224500789EE664047050E5582415123C36E48FF8
:1022550056F555F554F553AE55AD54AC53780812B3
:102265001D518F568E558D548C53E5582414123CB0
:1022750036E4E5564FF556E555F555E554F554E57F
:1022850053F553AF56AE55AD54FC7808121D518F1A
:10229500568E558D548C53E558241B123C36E4E577
:1022A500564FF556E555F555E554F554E553F553B3
:1022B500AF56AE55AD54FC7808121D518F568E554C
:1022C5008D548C53E558241A123C36E4E5564FF5E7
:1022D50056E555F555E554F554E553F553123C329D
:1022E5008F5CE55C30E412E556F556E555F555E5A8
:1022F50054F554E5534410F553E4F55B7420255823
:10230500F558E43557F557D3E55894FEE55794014C
:102315004071E54E2401F54EE4354DF54DE4354C5F
:10232500F54CE4354BF54BC3E54E9546FFE54D952C
:1023350045FEE54C9544FDE54B9543FCAB52AA5152
:10234500A950A84FD3121D2D4036AF4EAE4DAD4C02
:10235500AC4B78A1E6F56C08E6F56D855E6E855F9C
:102365006F856070123A468F5DE55D600CE4F55649
:10237500F555F554755380F55BE4F557F55880032D
:10238500E4F55BE55B6003022203800AE4F556F59C
:1023950055F554755380E4FFFEFDFCAB56AA55A9CF
:1023A50054A853C3121D2D7009F556F555F55475EE
:0A23B5005380AF56AE55AD54AC5343
:0123BF0022FB
:041E4A008E438F44F0
:101E4E00756C02756D00AA06A907756E018A6F89F9
:101E5E00707F007E007D007C00123A468F46AA43BA
:101E6E00A9447B01E4FFFE123C418F457BFF7A348F
:101E7E00793085456B1217F9E54564EB7003021F47
:101E8E001DE54564E97003021F1D7BFF7A34795509
:101E9E001217F9AA43A9447B017FC67E01123900AD
:101EAE008F638E628D618C607BFF7A3479648F6E66
:101EBE008E6D8D6C8C6B1217F9AF63AE62AD61AC2B
:101ECE0060756C02756D00756E0185436F8544708B
:101EDE00123A468F46AA43A9447B01E4FFFE123C08
:101EEE00418F457BFF7A34799285456B1217F9E560
:101EFE004564EB6011E54564E9600B7BFF7A34794C
:101F0E00A81217F980097BFF7A3479BF1217F9AA44
:101F1E0043A9447B017F0B7E001239DC78A1EEF6DB
:101F2E0008EFF67BFF7A3479CC8E6BF56C1217F9CD
:101F3E00AA43A9447B017F0D7E00123C41789DA6E9
:101F4E0007AA43A9447F0E1239DC8E478F48AA4355
:101F5E00A9447B017F107E00123C418F49AA43A900
:101F6E00447F111239DC8E4A8F4BAA43A9447B0160
:101F7E007F137E001239DC8E4C8F4DAA43A9447B11
:101F8E00017F167E001239DC8E4E8F4FAA43A94474
:101F9E007B017F207E001239008F538E528D518C23
:101FAE0050AA43A9447B017F247E001239008F572B
:101FBE008E568D558C54AA43A9447B017F2C7E00EE
:101FCE001239008F5F8E5E8D5D8C5CE4E548256373
:101FDE00FFE5473562FEE43561FDE43560FC78AB24
:101FEE00121DADE54BAE4A7805C333CE33CED8F9CC
:101FFE00FF78A1E6FC08E6FD24FFFBEC34FFCB2FB7
:10200E00FFEB3EFE121B6DE4FCFD78AF121DADAF73
:10201E0049E4FCFDFEAB57AA56A955A854121BFA6B
:10202E00A804A905AA06AB07E4FCFDEB2548FFEAC8
:10203E003547FEED39FDEC38FC78AF121DA0EF2BC5
:10204E00FFEE3AFEED39FDEC38FCEF2563FFEE3581
:10205E0062FEED3561FDEC3560FC78A7121DADE535
:10206E005F24FEFFE55E34FFFEE55D34FFFDE55CBB
:10207E0034FFFCC004A905AA06AB07789DE6FFE471
:10208E00FCFDFED000121BFA78A7121DA0EF2BFF4D
:10209E00EE3AFEED39FDEC38FC78A3121DAD78A0BA
:1020AE007602E54F454E600DE4854F5B854E5AF541
:1020BE0059F558800C85575B85565A855559855468
:1020CE0058E54D454C600FAE4CAF4DE4FCFD900411
:1020DE0000121DB9800EAF53AE52AD51AC509004EC
:1020EE0000121DB9AF49E4FCFDFEAB5BAA5AA9591B
:1020FE00A858121BFA78AF121DA0EF2BFBEE3AFA7E
:10210E00ED39F9EC38F8E4FCFDEB2548FBEA3547F0
:10211E00FAED39F9EC38F8900400E0FCA3E0FDA3E9
:10212E00E0FEA3E0C39BFFEE9AFEED99FDEC98FC5A
:10213E00A3121DB9789DE6FFE4FCFDFEF8F9FAAB9B
:10214E0007900404E0FCA3E0FDA3E0FEA3E0FF1271
:10215E001C858F678E668D658C64E47FF57EFFFD32
:10216E00FCAB67AA66A965A864C3121D2D50097839
:0E217E009E76027546F18004789E7604AF4688
:01218C002230
:08388F008F4A8E498D488C47D9
:10389700E4FFFEFDFCAB4AAA49A948A847C3121D8D
:1038A7002D700F78A3121D948F4E8E4D8D4C8C4B1F
:1038B700803EE54A24FEFFE54934FFFEE54834FF34
:1038C700FDE54734FFFCC004A905AA06AB07789DB0
:1038D700E6FFE4FCFDFED000121BFA78A7121DA03C
:1038E700EF2BF54EEE3AF54DED39F54CEC38F54B3F
:0838F700AF4EAE4DAD4CAC4BE1
:0138FF0022A6
:083646008F268E258D248C23B4
:10364E00E47F04FEFDFCAB26AA25A924A823121BA9
:10365E00FAC004C005C006C00778A1E6FE08E6FF62
:10366E00E4FCFDF8F9AA06AB07D007D006D005D0CA
:10367E0004121C8578AB121DA0EF2BFFEE3AFEED67
:10368E0039FDEC38FC78A1E6F56C08E6F56D756E43
:10369E000185276F852870123A46E47F04FEFDFCF3
:1036AE00AB26AA25A924A823121BFAC004C005C064
:1036BE0006C00778A1E6FE08E6FFE4FCFDF8F9AACD
:1036CE0006AB07D007D006D005D004121C85AE027B
:1036DE00AF03AA27A9287B01123900EFEEEDEC54B7
:0236EE000FFCCF
:0136F00022B7
:083593008F0B8E0A8D098C08D4
:10359B00E4F50EAF0BAE0AAD09AC0812388F8F16DF
:1035AB008E158D148C138F128E118D108C0F789DA0
:1035BB00E6FFE4EF2516FFE43515FEE43514FDE4D4
:1035CB003513FCAB12AA11A910A80FC3121D2D6045
:1035DB0036AF12AE11AD10AC0F78A1E6F56C08E664
:1035EB00F56D756E01850C6F850D70123A468F0E59
:1035FB00E5122401F512E43511F511E43510F5103F
:10360B00E4350FF50F80A7AF0BAE0AAD09AC0885FB
:10361B000C27850D281236468F0B8E0A8D098C08C8
:10362B0074FFFFFEFD7C0FAB0BAA0AA909A808C308
:0A363B00121D2D600302359EAF0E34
:013645002262
:103B83008D49EF70077F40123CAC80057F40123CAB
:103B9300C37F80123CC3AF49123CCF7F80123CAC41
:0A3BA3007FFF123CCF7F40023CC3BD
:103AE1007D38E4FF123B837F017E00123BAD7D48B0
:103AF100E4FF123B837F017E00123BAD7D01E4FFB9
:103B0100123B837F027E00123BAD7D0CE4FF123B32
:083B1100837F017E00023BAD41
:08380A008D438B448A45894679
:10381200EFF46010EF4480FDE4FF123B837F017EF2
:1038220000123BADE5437038F547AB44AA45A946C3
:10383200854782F583121B0CF548E548604EFD7FF3
:1038420001123B837F017E00123BAD0547AB44AAC8
:1038520045A946854782758300121B0CF54880DA1C
:10386200E4F547E547C395435022AB44AA45A94630
:10387200854782758300121B0CF548FD7F01123BC0
:0C388200837F017E00123BAD054780D71C
:01388E002217
:053CA700EFF452A02221
:043CBB00EF42A02212
:10334000E4F54374452543F8E4F60543E543B40B3F
:10335000F274FFF553F552F551F550E4F543123C84
:10336000988F44E544C394304017E544D3943950D2
:103370001074452543F8A6440543AF44120003806A
:1033800050E54464086005E544B47F1A154374456C
:103390002543F8E4F67F08123BD37F20123BD37F0E
:1033A00008123BD3802BE544640D6005E544B40A64
:1033B0001D7B007A0079451231868F538E528D51D4
:1033C0008C507F0D123BD37F0A123BD38003E4F570
:1033D00044E543B40A1B7B007A0079451231868F9D
:1033E000538E528D518C507F0D123BD37F0A123B6E
:1033F000D374FFFFFEFDFCAB53AA52A951A850C3E2
:10340000121D2D700302335EAF53AE52AD51AC505E
:013410002299
:033CCF008F8022C1
:053CAC00EFF452B0220C
:043CBF00EF42A0220E
:043CC300EF42B022FA
:083A46008F6B8E6A8D698C689C
:103A4E00E4F572123CB18F717F10123CB6AF6BAEC3
:103A5E006AAD69AC68A971A801121D518F778E7677
:103A6E008D758C747F11122DA48F72E572700FAB51
:103A7E006EAA6FA970AF6DAE6C122EA48F727F10EE
:0C3A8E00123CC7E57260037572F0AF7265
:013A9A002209
:1025F3005344204361726420496E697469616C6954
:102603007A6174696F6E202E2E2E200A0D00434DC1
:1026130044302073656E74202E2E2E200052657375
:10262300706F6E7365203D2025322E3262580A0D7D
:1026330000434D44382073656E74202E2E2E2000E7
:10264300526573706F6E7365203D200025322E3204
:102653006258200A0D0056657273696F6E2031202F
:1026630053442043617264206465746563746564D4
:102673002E0A0D005374616E6461726420436170AD
:10268300616369747920436172642064657465636E
:102693007465642E0A0D0025322E326258200056CE
:1026A300657273696F6E20322053442043617264F4
:1026B3002064657465637465642E0A0D00434D449C
:1026C30035382073656E74202E2E2E200041434D25
:1026D3004434312073656E74202E2E2E20005469ED
:1026E3006D656F7574203D20256C75200A0D0048BB
:1026F300696768204361706163697479204361721B
:10270300642044657465637465640A0D00537461E1
:102713006E646172642043617061636974792043FC
:102723006172642044657465637465640A0D0043D3
:102733004D4431362073656E74202E2E2E200052A8
:102743006573706F6E7365203D2025322E3262589B
:10275300200A0D00426C6F636B2073697A652073E6
:10276300657420746F203531322062797465730A81
:102773000D0053442054696D656F75742045727262
:102783006F7200496C6C6567616C20436F6D6D619E
:102793006E640A0D00526573706F6E736520457227
:1027A300726F72004461746120546F6B656E2045D3
:1027B30072726F7200496E636F6D70617469626CDF
:1027C3006520566F6C7461676500436172642069AC
:1027D3007320496E61637469766500535049206FB5
:1027E300722054696D656F7574204572726F720043
:0E27F300556E6B6E6F776E204572726F7200BE
:0B2D9900E4F577F576F575F5747F3AE8
:022DA4008F732B
:102DA600E4F579E573C394404003022E9EE573442F
:102DB60040F5787B007A00797AFF123A9B8F7BE5A3
:102DC6007B701CAF77AE76AD75AC747818121D3E6D
:102DD6008F787B007A00797A123A9B8F7B80037515
:102DE6007987E579702FE57B702BE577F577E576C2
:102DF600F576E575F575E4F574AF77AE76AD75AC39
:102E0600747810121D3E8F787B007A00797A123A18
:102E16009B8F7B8003757987E579702DE57B70291B
:102E2600E577F577E576F576E4F575F574AF77AE83
:102E360076AD75AC747808121D3E8F787B007A00EB
:102E4600797A123A9B8F7B8003757987E5797018BA
:102E5600E57B7014E577FFE48F78FB7A00797AAF2B
:102E660078123A9B8F7B8003757987E579702CE51C
:102E76007B7028E5737005757895800DE573B40849
:102E86000575788780037578017B007A00797AAFBB
:0D2E960078123A9B8F7B8003757982AF79AB
:012EA300220C
:0734DF00FB7A0079467F0132
:0834E6008F578B588A59895A4F
:1034EE00E4F55EF55FF55B7B007A00795D7FFF1298
:1034FE003A9B8F5C055FE55F7002055EE55DB4FF8C
:10350E000AE55F455E6004E55C60DCE55C600575C0
:10351E005B878061E55F455E7005755B818056ABAC
:10352E0058AA59A95AE55D121B39E55D600464017C
:10353E007040E557D39401403C755E00755F01C342
:10354E00E55F9557E55E9400502B7B007A00795D20
:10355E007FFF123A9B8F5CAB58AA59A95A855F829E
:10356E00855E83E55D121B4B055FE55F70D1055EE1
:10357E0080CD755B837B007A00795D7FFF123A9B6D
:04358E008F5CAF5B44
:013592002216
:0A2EA4008E738F748B758A76897720
:102EAE00E4F57BF57CF5797B007A00797A7FFF1269
:102EBE003A9B8F78057CE57C7002057BE57A30E7DE
:102ECE000AE57C457B6004E57860DCE57860067594
:102EDE007987022F93E57C457B7006757981022FE9
:102EEE0093E57A6003022F90F57BF57C7B007A00E8
:102EFE00797A7FFF123A9B8F78057CE57C7002050C
:102F0E007BE57AB4FF0AE57C457B6004E57860DCFE
:102F1E00E5786005757987806CE57C457B70057575
:102F2E0079818061E57A64FE7053F57BF57CC3E5AB
:102F3E007C9574E57B957350287B007A00797A7FB7
:102F4E00FF123A9B8F78AB75AA76A977857C82851E
:102F5E007B83E57A121B4B057CE57C70D1057B806B
:102F6E00CD7B007A00797A7FFF123A9B8F787B00B7
:102F7E007A00797A7FFF123A9B8F78800875798470
:102F8E0080037579837B007A00797A7FFF123A9BF2
:042F9E008F78AF7900
:012FA200220C
:10102400E4F544781A76FF7F10123CC77BFF7A25DB
:1010340079F31217F9E4F5437B007A00794E7FFFC8
:10104400123A9B8F450543E543C3940A40EA7F80E7
:10105400123CA77BFF7A2679111217F97F10123CF4
:10106400B6E4F577F576F575F574FF122DA48F4582
:10107400E54570131234DF8F457BFF7A267920858E
:10108400466B1217F980057F10123CA77F10123CA3
:10109400C77F80123CBBE5456002F544E54460032C
:1010A4000211837F80123CA77BFF7A2679341217C2
:1010B400F97F10123CB6E47577AA757601F575F5DB
:1010C400747F08122DA48F45E5456003021174FB5B
:1010D4007A0079467F051234E68F457F10123CC7AB
:1010E4007F80123CBBE545603F7BFF7A2679431243
:1010F40017F97BFF7A26794F85466B1217F9E54578
:10110400B48320E546B4051BE4F544781A76097BDC
:10111400FF7A2679591217F97BFF7A267977121705
:10112400F9805C85454480577BFF7A267943121702
:10113400F9E4F5437BFF7A26799A74462543F8E669
:10114400F56B1217F90543E543C3940540E67F0D9B
:101154001200037F0A120003E54A64AA600375457E
:1011640083781A76027BFF7A2679A21217F9800F08
:101174007F10123CC77F80123CBB7F10123CA7E556
:1011840044600302120E7F80123CA77BFF7A26790B
:10119400C01217F97F10123CB6122D998F45E54500
:1011A4007053FB7A0079467F051234E68F457F1031
:1011B400123CC77F80123CBB7BFF7A26794312170F
:1011C400F9E4F5437BFF7A26799A74462543F8E6D9
:1011D400F56B1217F90543E543C3940540E67F0D0B
:1011E4001200037F0A120003E54854FC64FC6014F7
:1011F400754585800F7F10123CC77F80123CBB7FF2
:1012040010123CA7E5456002F544E5446003021270
:10121400FE781AE6B4020CE4F552F551F550754F18
:10122400408009E4F552F551F550F54FE4F556F5D3
:1012340055F554F5537F20123CA77BFF7A2679D0CD
:101244001217F97F10123CB6E4F577F576F575F5CB
:10125400747F37122DA48F45E54570051234DF8F56
:1012640045E54664016004E546701385527785516F
:1012740076855075854F747F29122DA48F45E545D9
:1012840070031234DF7F10123CC7E5562401F55673
:10129400E43555F555E43554F554E43553F553E444
:1012A400FFFEFDFCAB56AA55A954A853C3121D2D2D
:1012B4007003754581E54630E004E5456085E54504
:1012C40070137F20123CBB7BFF7A26792085466B06
:1012D4001217F9800A7F80123CBB7F10123CA77B57
:1012E400FF7A2679E185566E85556D85546C855354
:1012F4006B1217F9E5456002F544E54460030214F6
:101304000B781AE66402600302140B7F80123CA778
:101314007BFF7A2679C01217F97F10123CB6122D82
:10132400998F45E54560030213F1FB7A0079467F06
:10133400051234E68F457F10123CC77F80123CBBF8
:101344007BFF7A2679431217F9E4F5437BFF7A266B
:10135400799A74462543F8E6F56B1217F90543E5C7
:1013640043C3940540E67F0D1200037F0A12000375
:10137400E54720E706754586021400E54754C0FF9B
:10138400BFC00FE4781AF67BFF7A2679F21217F9B8
:10139400806A781A76097BFF7A2779101217F97F09
:1013A40080123CA77BFF7A2779321217F97F10123B
:1013B4003CB6E4F577757602F575F5747F10122D59
:1013C400A48F45E54570351234DF8F457F10123CFC
:1013D400C77F80123CBB7BFF7A27794285466B121C
:1013E40017F97BFF7A2779571217F9800F7F1012AC
:1013F4003CC77F80123CBB7F10123CA7E5456007C9
:10140400F544AF4412396EE5446004FF12396EAFFF
:011414004493
:0114150022B4
:053CB100781AE6FF2275
:10396E008F57E557B481097BFF7A2779750217F9CE
:10397E00E557B482097BFF7A2779860217F9E55756
:10398E00B483097BFF7A2779980217F9E557B48437
:10399E00097BFF7A2779A70217F9E557B485097BCA
:1039AE00FF7A2779B80217F9E557B486097BFF7AB3
:1039BE002779CD0217F9E557B487097BFF7A277966
:0E39CE00DE0217F97BFF7A2779F31217F92230
:10377E00E4F543AB07AA06A905A804FF7E407D1910
:10378E007C01121C85EFD39402500575C3708069BD
:10379E00EFD39402400BEFD39404500575C37180A0
:1037AE0058EFD39404400BEFD39408500575C372B1
:1037BE008047EFD39408400BEFD39410500575C398
:1037CE00738036EFD39410400BEFD39420500575D1
:1037DE00C3F08025EFD39420400BEFD394405005D7
:1037EE0075C3F18014EFD39440400BEFD394805007
:0B37FE000575C3F2800375430FAF4355
:01380900229C
:103A9B00E4FDFC8FC5AFC4757D008F7E0DBD0001AD
:103AAB000CE57E54F07004ED4C70EAED4C601BE5B8
:103ABB007E5470700AE5C5121B39E4FCFD8014744A
:103ACB00FF121B397C007D01800974FF121B397CAE
:053ADB00007D80AF0535
:013AE00022C3
:043CC700EF42902216
:053CB600EFF452902222
:103BAD005389F0438901C2A9758CF4758A3DC28D84
:103BBD00D28C308DFDC28CEF1F70011ED3EF94009F
:063BCD00EE940050E3221B
:103B190053873F438780C2AC759852E4F59BFCFDFF
:103B29007BC0FAF9F8121BFAA804A905AA06AB0783
:103B3900E4FFFE7D2F7C0D121C85EFF404F59A75C8
:053B49009B1ED2992231
:103BD300E4FDFC0DBD00010C209904ED4C70F4EDE7
:0F3BE3004C60088F99AE07C29980027EF1AF0641
:013BF20022B0
:073C98003098FDAF99C298BE
:013C9F002202
:103B4E00E4F5C8FCFDFEFB7A4079197801121BFAE8
:103B5E00E47B707A17F9F8121C85C3E49FFFE49E8C
:103B6E00AD07AE05F5CDF5CB8ECC8ECAC2CFD2AD9C
:043B7E00D2AFD2CA26
:013B82002220
:043CCB004387012208
:103BF300E4FF123C1CC291D290E4FF123C1CD29110
:0F3C03003091FDA29092042004037F00227F01E4
:013C1200228F
:022B49008F56A5
:102B4B00E47893F608F608F608F6C20008F6C20118
:102B5B00E55BD394004021855A648559638558629F
:102B6B00855761855B65E4F566F567F568F569AFD3
:102B7B00561229F07897A607D290D2912091030292
:102B8B002C82209003022C82123C4AE55625E078D9
:102B9B0093F64401F6C290E408F6087608E4FF12B7
:102BAB003C1CC291789516E6FF7893E6FEA80708C1
:102BBB008002C313D8FC139201A201123C18D291CC
:102BCB003091FDA2909200A200300101B350047825
:102BDB009776017895E660057897E660C0123BF32F
:102BEB00EF60037F0222E55CD3940040697897E69F
:102BFB00706478957608E4FF123C1CC291789516A8
:102C0B00D29008E6FF25E0F6E4FF123C1CD291308F
:102C1B0091FDA2909200A200E433789646F618E656
:102C2B0070D408E6FFAB5DAA5EA95F7894E6F582E7
:102C3B00758300EF121B4B789406D55C04D2018090
:102C4B0002C201E4FF123C1CC291A201123C18D239
:102C5B009120919280FB7897E66401601AE4FF1251
:102C6B003C1CC291C290E4FF123C1CD2913091FDEE
:0B2C7B007F01123C1CD2907897E6FF0E
:012C8600222B
:093C1300139203A2039290E4FF56
:103C1C00308E03308FFDC28EEF700A758DFF758B61
:063C2C00C3C28FD28E22FC
:103C4A0053890F438910C2AB758DFF758BC3C28F21
:033C5A00D28E22E5
:1029F000E47898F608F608F608F6C20208F6C2036C
:102A0000D290D291209103022B24209003022B24F8
:102A1000123C4AEF25E07898F6C290E408F6087672
:102A200008E4FF123C1CC291789A16E6FF7898E6FB
:102A3000FEA807088002C313D8FC123C13D29130C1
:102A400091FDA2909202A202300301B35004789C3F
:102A50007601789AE66005789CE660C5123BF3EF54
:102A600060037F0222E565D39400404C789A760893
:102A70007898A664E4FF123C1CC291789A16E6FF8F
:102A80007898E6FEA807088002C313D8FC123C130E
:102A9000D2913091FDA2909202A202300301B35074
:102AA00004789C7601789AE66005789CE660C51209
:102AB0003BF3EF60037F0222E566D3940040657824
:102AC0009CE67060789A7608AB67AA68A96918E6F0
:102AD000F582758300121B0C7898F6E4FF123C1CFB
:102AE000C291789A16E6FF7898E6FEA80708800259
:102AF000C313D8FC123C13D2913091FDA2909202E4
:102B0000A202300301B35004789C7601789AE66003
:102B100005789CE660C51566789906123BF3EF6070
:102B2000977F0222789CE664016019E4FF123C1C46
:102B3000C291C290E4123C1CD2913091FD7F0112EF
:082B40003C1CD290789CE6FFDA
:012B4800226A
:10309A0052656365697665642056616C7565203D85
:1030AA002025322E3262580A0D002D2D2D2D2D2D60
:1030BA002D2D2D2D2D2D2D2D2D2D2D2D2D2D436FDE
:1030CA006E666967203120476F212121212D2D2D20
:1030DA002D2D2D2D2D2D2D2D2D2D2D2D2D2D2D2D16
:1030EA002D0D0A00576520676F742070726F626C2D
:1030FA00656D7321002D2D2D2D2D2D2D2D2D2D2D71
:10310A002D2D2D2D2D2D2D2D2D436F6E66696720AA
:10311A003220476F212121212D2D2D2D2D2D2D2DB1
:10312A002D2D2D2D2D2D2D2D2D2D2D2D0D0A002D35
:10313A002D2D2D2D2D2D2D2D2D2D2D2D2D2D2D2DB5
:10314A002D2D2D436F6E666967203320476F21212D
:10315A0021212D2D2D2D2D2D2D2D2D2D2D2D2D2DAD
:10316A002D2D2D2D2D2D0D0A0046696E697368656A
:0C317A006420496E69742E2E2E0D0A0090
:10326400E4F544E4756401F563F562F5617565019F
:10327400F566F5677568007569457F431229F0E4C2
:10328400F55AF559F558F557F55B755C01F55D751B
:103294005E00755F487F43122B498F431544E54315
:1032A4006004E54470BD7BFF7A30799A85486B12DF
:1032B40017F97BFF7A3079B41217F97BFF7A00791A
:1032C4002E7F431236F18F43E54360097BFF7A304A
:1032D40079EE1217F97FE87E03123BAD7BFF7A305B
:1032E40079FF1217F97BFF7A0F79CC7F431236F1FD
:1032F4008F43E54360097BFF7A3079EE1217F97F3B
:10330400E87E03123BAD7BFF7A3179391217F97BE2
:10331400FF7A0F79FE7F431236F18F43E54360094C
:103324007BFF7A3079EE1217F97FE87E03123BAD0A
:0B3334007BFF7A3179731217F9AF4369
:01333F00226B
:0836F1008F4B8B4C8A4D894E72
:1036F900E4F554F555755232AB4CAA4DA94E855592
:1037090082855483121B0CF5510555E55570020548
:1037190054F582855483121B0CF54F0555E55570F8
:10372900020554E4855164F563F562F56175650137
:10373900756601F56775680075694FAF4B1229F019
:103749008F531552E5536004E55270D7E485515AF9
:10375900F559F558F557755B01755C01F55D755EB1
:1037690000755F50AF4B122B49E551F46004E552E7
:043779007083AF5357
:01377D002229
:10002E003A012A0428002900200021002200230082
:10003E00240025002600270028012802218F2803EE
:10004E002100280428052806280728082809280A38
:10005E00280B280C20802190280D20002100280E2E
:10006E0020812191280F2000219228102100281193
:10007E0021932812210028132814281520822816CF
:10008E0020002817281828192194281A2195281B92
:10009E002196281C2100281D2083281E2000281FA1
:1000AE0021972820210028212822282328242825AA
:1000BE002826282728282829282A2084282B20008B
:1000CE00282C282D282E282F28302831283220851C
:1000DE002833200028342835283628372198283808
:1000EE0021002839283A283B283C283D283E283F25
:1000FE002840284128422843284428452846284796
:10010E0028482849284A284B284C284D284E284F45
:10011E0028502851285228532854285528562857F5
:10012E0028582859285A285B285C285D285E285FA5
:10013E002860286128622199286321002864286597
:10014E002866286728682869286A286B286C286D15
:10015E00286E286F287028712872287328742875C5
:10016E002876287728782879287A287B287C287D75
:10017E00287E287F28802881288228832884288525
:10018E002886288728882889288A288B288C288DD5
:10019E00288E288F289028912086289220872893B1
:1001AE002000289428952896289728982899289AE8
:1001BE00289B289C289D289E289F219A28A02100B4
:1001CE0028A128A228A328A428A528A628A728A8BD
:1001DE0028A928AA28AB28AC28AD28AE28AF28B06D
:1001EE0028B128B228B328B428B528B628B728B81D
:1001FE0028B9208828BA200028BB208928BC2000D6
:10020E0028BD28BE28BF28C028C128C228C3219BCC
:10021E0028C4210028C528C628C728C828C928CA26
:10022E0028CB28CC28CD28CE28CF28D028D128D20C
:10023E0028D328D428D528D628D728D828D928DABC
:10024E0028DB28DC28DD28DE28DF28E028E1208ACC
:10025E0028E2208B28E3200028E428E528E628E77A
:10026E0028E828E928EA28EB28EC28ED28EE28EFE4
:10027E0028F028F128F228F328F428F528F628F794
:10028E0028F8208C28F92000219C28FA219D28FB93
:10029E00208D219E28FC208E219F28FD20002100EC
:1002AE0028FE28FF2A0128002201239524892507EC
:1002BE0026A42707280121C72200238026C4270C45
:1002CE0028022009211C220426AA270A280320001E
:1002DE002100220023A626A0270728042805200592
:1002EE00238426B427092806200022032300248114
:1002FE0025C026AB270A280721AE22002395248984
:10030E00250726A42700280821482201238026C479
:10031E00270C280920092104220426AA270A280AC4
:10032E0020002100220023A826A42707280B280C32
:10033E0021402220238026C4270C280D222426C6E5
:10034E00280E219E220026C8280F200921022214E1
:10035E0026AA270A2810200521002200238426B46D
:10036E0027092811200021012300240125C026ABD6
:10037E00270A281221C32395248925072620270022
:10038E002813200321C223832626270D281421B3E8
:0E039E0022082815200021C6220023952600E3
:1003AC0027082816210023002496250326AA270AAD
:1003BC002817204221B623802489250728182000DD
:1003CC0021002394260E2819200F238426B42709F4
:1003DC00281A2000239326A82703281B2628270049
:1003EC00281C21012300240125C026AB270A281D27
:1003FC0021C523952489250726202700281E2100A6
:10040C0023942600270A281F260E28202003217952
:10041C00220123832626270D282121322822200081
:10042C00210422002380240025FC26AA270A282345
:10043C00210023002500282421A3220D2380249EA3
:10044C00253B2825204221572201248925072826CF
:10045C0020002143220D240025382827210822982A
:10046C002395248925072624270028282042219318
:10047C002201238026AA270A28292003217E220470
:10048C0023832626270D282A200021B0220023951D
:10049C0026A02707282B21002300240C250426AA9C
:1004AC00270A282C21022380248625C326AB282D3D
:1004BC002042219722012489250726AA282E2000D4
:1004CC0021002200241F2504282F21B223952489E2
:1004DC0025072620270428302042218B2204238044
:1004EC0026AA270A2831200021B12200239526A014
:1004FC002707283220032175220423832626270D63
:10050C002833200521002200238426B4270928340F
:10051C00200021602300240125C026AB270A2835A2
:10052C00210822982395248925072624270028367C
:10053C0021BC2200283721A3220D2300240125C031
:10054C0026AB270A28382160220023802400253876
:10055C0026AA2839210622982395248925072624A2
:10056C002700283A21BE2200283B200521002384A5
:10057C0026B42709283C200021602300240125C033
:10058C0026AB270A283D21422201239524892507E1
:10059C0026242700283E210C229826A42707283F32
:1005AC0021082840216022002300240125C026AB0D
:1005BC00270A2841210C22982395248925072624D3
:1005CC0027002842200521002200238426B4270975
:1005DC002843200023802400251026AB270A28441A
:1005EC00212222012395248925072624270028452A
:1005FC002100220023002404251226AA270A2846BB
:10060C00200321D422052383248925072626270DA0
:10061C0028472000216022002300240125C026AB9E
:10062C00270A284821B32395248925072600270863
:10063C002849210023002409250026AA270A284A34
:10064C00210223802486253B284B204221DD2205D4
:10065C0024892507284C200021002200241F250076
:10066C00284D21B323952489250726202700284EC1
:10067C00210023002497250326AA270A284F20426D
:10068C0021E22205238024892507285020002110EF
:10069C0022002300248025CC26AB285121002240A7
:1006AC0023B42489250726AA27042852220023B024
:1006BC002692270928532114220123952600270866
:1006CC002854214823A4262A27002855210022003B
:1006DC0023002409250026AA270A2856210823804E
:1006EC002486253B285720422111220724892507DF
:1006FC002858200021002200241F250028592114ED
:10070C00220123952489250726202700285A211603
:0E071C0026022709285B2100220023002480EA
:10072A00254826AA270A285C23A0248925072614F7
:10073A002709285D2480255026A42704285E21162F
:10074A0022012395248925072700285F21042200F6
:10075A002300249C257826AA270A28602143220DF3
:10076A00240125C426AB286121032200241528620E
:10077A0021002400250026AA2863215E23952489C6
:10078A00250726102709286421032300241525C4D8
:10079A0026AB270A2865210023802400250626AADD
:1007AA002866248F25E326AB2867204221CD22071D
:1007BA002489250726AA2868200021602200230010
:1007CA00240125C026AB286921002380248F250314
:1007DA0026AA286A204221DD220724892507286BB8
:1007EA0020002143220D2300240125C026AB286CBA
:1007FA00210022002400250426AA286D2003217F37
:10080A0022012383248925072626270D286E2162A3
:10081A00286F200521002200238426B42709287086
:10082A00200021062395260027082871210123008C
:10083A002497253B26AA270A28722042210E22083D
:10084A0023802489250728732003213C220B238334
:10085A002626270D2874200021032200239526022C
:10086A002708287521272300248125C426AB270AB7
:10087A002876210023802409254826AA287721588A
:10088A00223423A324892507262A27002878210031
:10089A00220023A026002709287921072380240380
:1008AA00253926AA270A287A21042300241C253858
:1008BA00287B2107238024832539287C210323953B
:1008CA002489250726022708287D21272300248139
:1008DA0025C426AB270A287E21002380240925481F
:1008EA0026AA287F2158223423A324892507262AC9
:1008FA0027002880210622002300248125C0269370
:10090A0027012881210023802489254826AA270A2D
:10091A0028822002216622082300240025662883D3
:10092A002000210022002380241F2502288421067A
:10093A002489250726DC270C2885210023AA26AA34
:10094A00270A288623B62600270828872380248694
:10095A00253B26AA270A288821052489250726DC7B
:10096A00270C2889210023AA26AA270A288A23B61F
:10097A0026002708288B23802486253B26AA270AB7
:10098A00288C2042217B220824892507288D2000D3
:10099A0021002200230024012582288E210524819A
:1009AA0025C226AB288F200321932208238324897A
:1009BA0025072626270D289020002105220023003E
:1009CA00248125C026132701289121002380248908
:1009DA00254826AA270A28922002217E22082300D7
:1009EA002400256628932000210022002380241F4A
:1009FA002502289421052489250726DC270C289519
:100A0A00210023AA26AA270A289623B62600270801
:100A1A00289723802486253B26AA270A2898210579
:100A2A002489250726DC270C2899210023AA26AA2F
:100A3A00270A289A2380241F2502289B21012300A4
:100A4A00248125C226AB289C2003219322082383D4
:100A5A00248925072626270D289D20002104220007
:100A6A00239526122708289E216023C426AA270434
:100A7A00289F210023C02600270928A0204221CB35
:100A8A002208238026AA270A28A12070215422B8E6
:0E0A9A0023952612270828A2200221CC22082C
:100AA800238026AA270A28A3200321CA220F2383EA
:100AB8002626270D28A42000210022002300248CAC
:100AC800250C26AA270A28A521042482257828A6E9
:100AD80021002380248925482612270428A72003DB
:100AE80021DE220F238325072626270D28A820008C
:100AF800210122002300249C257826AA270A28A958
:100B0800210023802481254028AA200321CF220FF9
:100B18002383248925072626270D28AB2070210842
:100B280022B8239526A0270428AC200321D4220F1D
:100B380023832626270D28AD2127220B28AE2070D7
:100B4800216322B823952612270828AF2000210107
:100B580022002380248625CB26AB270A28B02042F2
:100B680021DD22082489250726AA28B1200021187A
:100B78002280239526A4270028B2200321D9220FFA
:100B880023832626270D28B32070210A22B823950F
:100B980026A0270028B4200221E02208238026AAC4
:100BA800270A28B52070210A22B8239526A02700F5
:100BB80028B621542602270828B7200021182280A9
:100BC80026A4270028B82100220023802480254855
:100BD80026AA270A28B92070215E22B823952489DD
:100BE80025072612270828BA200021002200238082
:100BF8002409254B26AA270A28BB2070215F22B882
:100C08002395248925072610270828BC20002100C1
:100C180022002300241C258326AB270A28BD200395
:100C2800213222092383248925072626270D28BE59
:100C380020002100220023002482258C26AB270ACD
:100C480028BF200321252209238324892507262656
:100C5800270D28C0204221BC238026AA270A28C1A4
:100C68002000210122002300240125C026AB28C230
:100C78002070210F22B823952489250726202700D4
:100C880028C3200321E3220F23832626270D28C407
:100C9800200521002200238426B4270928C5200026
:100CA800210323952614270828C621A623A4262A2B
:100CB800270528C7210023A02644270928C821186A
:100CC800226D2380249E257B26AA270A28C9204234
:100CD8002113220B2489250728CA200021AE2200CF
:100CE80023952624270028CB21002203238024874C
:100CF800257B26AA270A28CC20422116220B2489E4
:100D0800250728CD200021AE220023952624270080
:100D180028CE20052100238426B4270928CF2003C4
:100D2800210D220B23832626270D28D02000210001
:100D38002200230024802602270028D123802409AA
:100D48002548261E28D221582234233324802507FB
:100D5800262A28D32100220023002680271028D401
:100D680021102363262A270028D52100236026A8DE
:100D7800271228D621AF224C230026C8270C28D7B3
:100D8800210022002680270528D823802486253B99
:100D9800261E270028D92042211C220E2300248049
:100DA800250728DA20002135222926C4270C28DB2C
:100DB8002002211D220E261E270028DC2000217F6C
:100DC800223426C4270C28DD210022002390249FEA
:100DD80025042610270A28DE2300248425002680DF
:100DE800271028DF2106236324802507262A2700C9
:100DF80028E021002380248926AA270A28E1200543
:100E0800238426B4270928E22070216122B823957B
:0E0E18002612270828E3200021012200238053
:100E2600248625C326AB270A28E4204221CE220F9A
:100E36002489250726AA28E52070215022B8239563
:100E46002612270828E6200521002200238426B43E
:100E5600270928E72070216422B82395261227083F
:100E660028E82000210122002380248625C326AB02
:100E7600270A28E9204221D3220F2489250726AAFA
:100E860028EA2070215122B823952612270828EB3C
:100E9600200521002200238426B4270928EC20708F
:100EA600216522B823952612270828ED2000210166
:100EB60022002380248625C326AB270A28EE20425B
:100EC60021D8220F2489250726AA28EF207021522F
:100ED60022B823952612270828F020052100220093
:100EE600238426B4270928F12070216122B823958E
:100EF6002602270828F220002101220023802486CA
:100F060025C326AB270A28F3204221DD220F248998
:100F1600250726AA28F42070215022B823952602F8
:100F2600270828F5200521002200238426B4270956
:100F360028F6200021012380248625CB26AB270A0C
:100F460028F7204221E1220F2489250726AA28F81E
:100F56002000210222002300248125C426AB28F983
:100F6600210023802489254826AA28FA20052384DF
:100F7600250726B4270928FB2070214E22B8239581
:100F86002610270828FC2000210022002380248622
:100F960025C326AB270A28FD204221E7220F2489F4
:100FA600250726AA28FE200021BB220023952620FD
:100FB600270028FF20052100238426B427092A08B4
:100FC6001001FFFFFFFF3A00643A65BB083A09BB10
:100FD60050105267517705A1180454015521070096
:100FE600060C0B03501051005204610F64556555F1
:100FF60005A11804FFFFFFFF5407551006090B0251
:1010060061055006650052B86400510005A10D0047
:0E10160018040C05460748077201FFFFFFFF94
:0D3C7F00C28C758C7CE4F58AC28DD28C223B
:102FA3008F468E458D448C43123CA08B178A18891B
:102FB30019AF46AE45AD44AC4378C1121DADAF4623
:102FC300AE45AD44AC4312388F78C5121DAD78B30E
:102FD300121DC50000000078B3121D9478C5121DA0
:102FE300A0EB2FFFEA3EFEE93DFDE83CFCAB17AA50
:102FF30018A919900004121BC2F56D85F06C756E4B
:1030030001756F00757000123A4678B3121D94EF84
:103013002401FFE43EFEE43DFDE43CFC78B3121DD5
:10302300AD78B9121DC50000000078B3121D947865
:10303300C5121DA0EB2FFFEA3EFEE93DFDE83CFC77
:10304300AB17AA18A919900004121BC2F56D85F0DD
:103053006C756E01756F02757000123A4678B31283
:103063001D94EF2401FFE43EFEE43DFDE43CFC78C7
:10307300B3121DAD78BD121DC500000000E478B782
:10308300F60876017F0C123B4E78B8E67003C2CA8D
:073093002243870180F322B4
:03002B00021416A6
:10141600C0E0C0F0C083C082C0D075D000C000C09C
:0D14260001C002C003C004C005C006C0071D
:10143300C2CF123C7F78B7E6B40800400302177CA2
:1014430090144AF828287302147C02146202173499
:1014530002169002155802163602146F0216EA306D
:10146300920302177C78B7760002177C309203024E
:10147300177C78B7760402177C30920302150F307D
:101483008D0302150FD29378BBE6FE08E62400F520
:101493008274003EF583E0FF7B007A007922123AE2
:1014A3009BC29378B9121D94EF2401FFE43EFEE43E
:1014B3003DFDE43CFC78B9121DADE47FFF7E01FDE8
:1014C300FC78B9121DA0D3121D2D40ADE47FFF7E21
:1014D30001FDFC78BD121DA0D3121D2D4025AB17B5
:1014E300AA18A919121AF3FFE4FCFDFE78B3121D22
:1014F300A0C3121D2D700678B77602800A78B776DE
:1015030003800478B77604D28D02147C2092030200
:10151300177C78B7E6600302177C7FFF7E01FDFC32
:1015230078BD121DA0D3121D2D500302177CAB17DB
:10153300AA18A919121AF3FFE4FCFDFE78B3121DD1
:10154300A0C3121D2D700778B7760202177C78B7F7
:10155300760302177C3092030215EB308D030215DC
:10156300EBD29378BFE6FE08E62400F58274023ED0
:10157300F583E0FF7B007A007922123A9BC29378CD
:10158300BD121D94EF2401FFE43EFEE43DFDE43C67
:10159300FC78BD121DADE47FFF7E01FDFC78BD121A
:1015A3001DA0D3121D2D40ADE47FFF7E01FDFC780D
:1015B300B9121DA0D3121D2D4025AB17AA18A919C6
:1015C300121AF3FFE4FCFDFE78B3121DA0C3121D33
:1015D3002D700678B77607800A78B7760580047889
:1015E300B77600D28D02155820920302177C78B784
:1015F300E66404600302177C7FFF7E01FDFC78B97B
:10160300121DA0D3121D2D500302177CAB17AA186D
:10161300A919121AF3FFE4FCFDFE78B3121DA0C34F
:10162300121D2D700778B7760702177C78B77605F9
:1016330002177C78B3121D9478C5121DA0EB2FFFFF
:10164300EA3EFEE93DFDE83CFCAB17AA18A9199058
:101653000004121BC2F56D85F06C756E01756F0089
:10166300757000123A4678B3121D94EF2401FFE41B
:101673003EFEE43DFDE43CFC78B3121DAD78B912A7
:101683001DC50000000078B7760602177C78B312F8
:101693001D9478C5121DA0EB2FFFEA3EFEE93DFD28
:1016A300E83CFCAB17AA18A919900004121BC2F559
:1016B3006D85F06C756E01756F02757000123A4698
:1016C30078B3121D94EF2401FFE43EFEE43DFDE4F4
:1016D3003CFC78B3121DAD78BD121DC5000000009F
:1016E30078B7760102177C78C1121D9475270075AF
:1016F300280012364678C1121DAD74FFFFFEFD7C33
:101703000F78C1121DA0C3121D2D601C78C1121DBC
:101713009412388F78C5121DAD78B3121DC5000021
:10172300000078B77606805178B876001876068080
:101733004878C1121D947527027528001236467821
:10174300C1121DAD74FFFFFEFD7C0F78C1121DA0F9
:10175300C3121D2D601C78C1121D9412388F78C5D9
:10176300121DAD78B3121DC50000000078B77601D5
:09177300800778B87600187601B1
:10177C00D007D006D005D004D003D002D001D000C1
:0B178C00D0D0D082D083D0F0D0E0326B
:102C8700446F6E6520696E6974616C697A696E67F5
:102C97002075617274210D0A00446F6E6520696E9C
:102CA7006974616C697A696E67204C4344210D0A27
:102CB700005374617274696E67205350490D0A009E
:102CC700446F6E6520696E6974616C697A696E67B5
:102CD70020535441303133210D0A00496E70757409
:102CE70020456E74727920233A2000496E76616C14
:102CF70069642073656C656374696F6E2E20506C10
:102D0700656173652073656C656374206120766106
:102D17006C696420656E7472792E00456E747279E1
:102D27002069732061206469726563746F72792EFC
:102D37002E2E4F70656E696E67206E6F772E2E2E62
:102D47000D0A00456E7472792069732061206669E7
:102D57006C652E2E2E4F70656E696E67206E6F77CD
:102D67002E2E2E0D0A005344204361726420496EB3
:102D770069742E2E2E005374642E20436170616394
:102D87006974790048696768204361706163697491
:022D97007900C1
:1023C000123CA08B408A418942758E0C758F017F2B
:1023D0000F123CBF7FE0123CBB7F10123CA7E47899
:1023E00083F608F67883E6FE08E6FFE4FCFD7B60F2
:1023F0007AEAF9F8C3121D17400A788406E670E4F9
:10240000180680E07F10123CBB7F807E25123B19AE
:102410007BFF7A2C79871217F9123AE17BFF7A2C2D
:1024200079A01217F97BFF7A2D796DE4FDFF123840
:102430000A7F807E1A7D067C0012377E7885A6078B
:102440007BFF7A2C79B81217F91232647BFF7A2C51
:1024500079C71217F97885E6600C7F10123CA77FC8
:1024600053123BD380FE7F40123CA7121024788584
:10247000EFF6600C7F10123CA77F43123BD380FE27
:102480007F40123CBB7F407E787D7D7C0112377E91
:102490007885EFF6600C7F10123CA77F50123BD37B
:1024A00080FEE47883F608F67883E6FE08E6FFC34C
:1024B000EE9402501574002FF58274003EF583747B
:1024C000FFF006E670E2180680DE123CB17886EF77
:1024D000F6BF090F7BFF7A2D797DE4FD7F4012382E
:1024E0000A80117886E6700C7BFF7A2D798BFD7F50
:1024F0004012380A7E007F00121E4A7885A607AB7C
:1025000040AA41A942900006121D64788B121DADAD
:10251000788B121D94754700754800122801E4FC61
:10252000FD788F121DAD7BFF7A2C79E21217F9121C
:102530003340787F121DADE4FFFEFDFC787F121D55
:10254000A0D3121D2D4010788F121D94787F121D7C
:10255000A0D3121D2D40137BFF7A2C79F21217F9AC
:10256000123340787F121DAD80CD7F80123CA7785A
:102570008B121D947881E6FA08E68A47F54875497A
:1025800000754A0012218D7887121DAD7887121DC3
:1025900094E4FFFEFDEC5410FCE4FBFAF9F8C312DE
:1025A0001D2D602A7BFF7A2D79221217F978871268
:1025B0001D94EFEEEDEC540FFC7887121DAD78877B
:1025C000121D9412388F788B121DAD0225107BFFDF
:1025D0007A2D794A1217F97887121D94EFEEEDECF7
:1025E000540FFC7887121DAD7887121D94122FA30B
:0325F000022510B1
:03000000023C8C33
:0C3C8C00787FE4F6D8FD7581C80223C0E3
:101AF300BB010689828A83E0225002E722BBFE02F1
:091B0300E32289828A83E4932223
:101B0C00BB010CE58229F582E5833AF583E022508E
:101B1C0006E92582F8E622BBFE06E92582F8E222D8
:0D1B2C00E58229F582E5833AF583E49322F2
:101B3900BB010689828A83F0225002F722BBFE018B
:021B4900F32285
:101B4B00F8BB010DE58229F582E5833AF583E8F0D0
:101B5B00225006E92582C8F622BBFE05E92582C87C
:021B6B00F22264
:101B6D00BC000BBE0029EF8DF084FFADF022E4CC5C
:101B7D00F875F008EF2FFFEE33FEEC33FCEE9DEC25
:101B8D00984005FCEE9DFE0FD5F0E9E4CEFD22ED6B
:101B9D00F8F5F0EE8420D21CFEADF075F008EF2FB5
:101BAD00FFED33FD4007985006D5F0F222C398FDA6
:051BBD000FD5F0EA2243
:101BC200BB0110E58229F582E5833AF583E0F5F061
:101BD200A3E0225009E92582F886F008E622BBFE3E
:101BE2000AE92582F8E2F5F008E222E5832AF58384
:081BF200E993F5F0A3E9932249
:101BFA00E88FF0A4CC8BF0A42CFCE98EF0A42CFC8A
:101C0A008AF0EDA42CFCEA8EF0A4CDA8F08BF0A407
:101C1A002DCC3825F0FDE98FF0A42CCD35F0FCEB66
:101C2A008EF0A4FEA9F0EB8FF0A4CFC5F02ECD392B
:0F1C3A00FEE43CFCEAA42DCE35F0FDE43CFC2298
:101C490075F008758200EF2FFFEE33FECD33CDCC52
:101C590033CCC58233C5829BED9AEC99E5829840D5
:101C69000CF582EE9BFEED9AFDEC99FC0FD5F0D6B2
:101C7900E4CEFBE4CDFAE4CCF9A88222B800C1B9DC
:101C89000059BA002DEC8BF084CFCECDFCE5F0CB1A
:101C9900F97818EF2FFFEE33FEED33FDEC33FCEB53
:101CA90033FB10D703994004EB99FB0FD8E5E4F90E
:101CB900FA227818EF2FFFEE33FEED33FDEC33FCFB
:101CC900C933C910D7059BE99A4007EC9BFCE99AEF
:101CD900F90FD8E0E4C9FAE4CCFB2275F010EF2F34
:101CE900FFEE33FEED33FDCC33CCC833C810D70734
:101CF9009BEC9AE899400AED9BFDEC9AFCE899F86F
:0E1D09000FD5F0DAE4CDFBE4CCFAE4C8F92201
:101D1700EB9FF5F0EA9E42F0E99D42F0EC6480C843
:061D270064809845F022E3
:101D2D00EB9FF5F0EA9E42F0E99D42F0E89C45F00C
:011D3D002283
:101D3E00E8600FECC313FCED13FDEE13FEEF13FF83
:031D4E00D8F122A7
:101D5100E8600FEFC333FFEE33FEED33FDEC33FCF0
:031D6100D8F12294
:101D6400BB010DE58229F582E5833AF583021DEC7A
:101D74005007E92582F8021D94BBFE07E92582F885
:101D8400021DF8E58229F582E5833AF583021E04F3
:0C1D9400E6FC08E6FD08E6FE08E6FF227B
:0D1DA000E6FB08E6F908E6FA08E6CBF822B3
:0C1DAD00ECF608EDF608EEF608EFF62262
:0C1DB900ECF0A3EDF0A3EEF0A3EFF0229D
:101DC500D083D082E493F608740193F608740293E5
:091DD500F608740393F67404731C
:10000300EFB40A07740D12000E740A309811A89900
:10001300B8130CC2983098FDA899C298B811F6305D
:0700230099FDC299F5992235
:10179700E577246BF8E60577227868300702786BDF
:1017A700E475F001121E14021AF32000EB7F2ED20B
:1017B700008018EF540F2490D43440D4FF30040B2A
:1017C700EF24BFB41A0050032461FFE578600215C7
:1017D70078057BE57B7002057A30070D7868E4753C
:1017E700F001121E14EF021B390200037403D20723
:1017F7008003E4C207F5778B688A69896AE4F5781C
:10180700F57AF57BE57860077F201217D280F575AA
:1018170079FFC201C200C202C203C205C206C208E2
:101827001217A0FF700D3007057F001217E3AF7B7B
:10183700AE7A22B4255FC2D5C2041217A0FF24D006
:10184700B40A00501A75F00A787830D50508B6FF43
:101857000106C6A426F620D5047002D20380D92437
:10186700CFB41A00EF5004C2E5D2040219E3D20143
:1018770080C6D20080C0D20280BCD2D580BAD20541
:1018870080B47F201217D22002077401B578004078
:10189700F1121797FF1217D202180BD208D206803F
:1018A70095121797FB121797FA121797F94A4B7069
:1018B7000679B47A1A7BFF20022EE578602A7E002B
:1018C7008E82758300121B0C60060EEE657970F030
:1018D700C2D5EBC0E0EAC0E0E9C0E0EE121A2AD0B8
:1018E700E0F9D0E0FAD0E0FB121AF3FF60AAEBC0F0
:1018F700E0EAC0E0E9C0E01217D2D0E02401F9D055
:10190700E03400FAD0E0FBE5790460DCD579D980D2
:10191700877BFF7A1A7926D202809C791080027918
:1019270008C206C2088008D2D5790A8004790AC29B
:10193700D5E579047002F579E4FAFDFEFF121797F1
:10194700FC7B08200113121797FD7B1030000A1249
:101957001797FE121797FF7B20EC3382D592D5504D
:1019670013C3E43000069FFFE49EFEE42001039DBD
:10197700FDE49CFCE4CBF8C201EC700CCFCECDCCDF
:10198700E824F8F870F38017C3EF33FFEE33FEED6A
:1019970033FDEC33FCEB33FB994002FB0FD8E9EB4B
:1019A700300105F8D0E0C448B201C0E00AEC4D4E62
:1019B7004F78207B0070C2EAB5790040BCC0E012C6
:1019C7001A2CD0F0D0E0200104C4C0E0C4B201C09A
:1019D700F01217BBD0F0D5F0EB02180B121E24182B
:1019E700A85319225818794C18754219264F192EE1
:1019F70044192E49188E4319345519184619184594
:101A07001918471AD450187D2D18812E18A42B1891
:101A1700852318A2201AC22A183D480000189C3FA7
:101A27003F3F00790AA2D5200314300509B91002F7
:101A37000404B9080104A2D52006025001042002BB
:051A4700689202B57871
:101A4C00005034C0E07F203003197F30A2027206B0
:101A5C007205500F121A83C202C206C205C2087F59
:101A6C0030800F300503E9C0E01217D2300503D0E7
:101A7C00E0F9D0E0B578CC3005177F30B9100C12F6
:101A8C0017D27F583004077F788003B908031217E8
:101A9C00D23002057F2D0217D27F202008F87F2B31
:101AAC002006F322920280CF286E756C6C29002DD3
:101ABC0050434958D2011217973001F8C201787877
:101ACC0030D50108F602183D1217972403B405000F
:101ADC004001E4901ABB931217C3743A1217C3D285
:071AEC0003757804021922C2
:103186008B548A558956AB54AA55A956121AF3FF81
:10319600123C5D500D74012556F556E43555F5552E
:1031A60080E4D200AB54AA55A956121AF3FF642B39
:1031B6006004EFB42D1BAB540556E556AA557002B4
:1031C600055514F9121AF3642D6003D38001C392D6
:1031D60000E4F55AF559F558F557AB54AA55A956D2
:1031E600121AF3FF123C70505CE47F0AFEFDFCAB42
:1031F6005AAA59A958A857121BFAC8ECC8EDC0E03C
:10320600EEC0E0EFC0E0AB54AA55A956121AF3FF80
:103216003395E0FEEF24D0FFEE34FFFEE4FCFDD054
:10322600E0FBD0E0FAD0E0F9EB2FF55AEA3EF5598B
:10323600ED39F558EC38F55774012556F556E43551
:1032460055F555809530000AAF5AAE59AD58AC5772
:0E325600800BAF5AAE59AD58AC57121DDE2298
:0E1DDE00C3E49FFFE49EFEE49DFDE49CFC2216
:0C1DEC00E0FCA3E0FDA3E0FEA3E0FF226A
:0C1DF800E2FC08E2FD08E2FE08E2FF2227
:101E0400E493FC740193FD740293FE740393FF2224
:101E1400FAE6FB0808E6F925F0F618E6CA3AF622CF
:101E2400D083D082F8E4937012740193700DA3A34D
:101E340093F8740193F5828883E473740293686061
:061E4400EFA3A3A380DF61
:0F3C7000EFC394304007EF943A50028001C32213
:103C5D00EFC394094005EF940E4003BF2003D380BA
:033C6D0001C3226E
:00000001FF
