:1038C1002535642E20005B4449525D0A0045727221
:1038D1006F7220686173206F636375726564004560
:1038E10072726F7220425042206E6F7420466F7563
:1038F1006E64210D0A0042504220466F756E6421AC
:033901000D0A00AC
:073AD4007B007A00799D22BE
:0F3A5500E558240BFFE43557FEAB5EAA5FA9606E
:083A64008F828E83121AF7FF16
:013A6C002237
:0A37BC008E688F698B6A8A6B896C36
:1037C600E4F570F56FF56EF56DF571AB6AE56C2590
:1037D60069F9E56B3568FAC374019571FFE49400E5
:1037E600FEE92FF9EA3EFA121ADEFBAF70AE6FADB4
:1037F6006EAC6D7808121D3C8F708E6F8D6E8C6D61
:10380600AF03E4E5704FF570E56FF56FE56EF56EA5
:0F381600E56DF56D0571E571B402B0AE6FAF7081
:013825002280
:0A36E0008E688F698B6A8A6B896C13
:1036EA00E4F570F56FF56EF56DF571AB6AE56C256D
:1036FA0069F9E56B3568FAC374039571FFE49400C0
:10370A00FEE92FF9EA3EFA121ADEFBAF70AE6FAD90
:10371A006EAC6D7808121D3C8F708E6F8D6E8C6D3D
:10372A00AF03E4E5704FF570E56FF56FE56EF56E82
:10373A00E56DF56D0571E571B404B0AF70AE6FADAE
:03374A006EAC6DF5
:01374D002259
:0827A4008F468E458D448C43E5
:1027AC00755A0185475B85485CE4F553F554F55142
:1027BC00F552789EE6B4020F78AF121D7F8F508EC3
:1027CC004F8D4E8C4D800D789DE6FFE48F50F54F6C
:1027DC00F54EF54D85464C85454B85444A85434918
:1027EC00AF4CAE4BAD4AAC4978A1E6F56C08E6F5BA
:1027FC006D855A6E855B6F855C701238268F59E536
:10280C00596003022980AB5AAA5BA95CAF52AE5146
:10281C00123A648F55E55564E570030228F2E555CC
:10282C0070030228F2E552240BFFE43551FEAB5A3B
:10283C00AA5BA95C123A648F57E557540E600302E9
:10284C0028F20554E554700205537BFF7A3879C1A0
:10285C0085536BF56C1217E4E4F5567E00E55225B2
:10286C0056FFEE3551FEAB5AAA5BA95C123A648F47
:10287C00581200030556E556C3940840DEE5573060
:10288C00E4307556087E00E5522556FFEE3551FEB4
:10289C00AB5AAA5BA95C123A648F58120003055616
:1028AC00E556C3940B40DE7BFF7A3879C71217E4E8
:1028BC0080347F2E1200037556087E00E552255693
:1028CC00FFEE3551FEAB5AAA5BA95C123A648F58E5
:1028DC001200030556E556C3940B40DE7F0D120023
:1028EC00037F0A12000374202552F552E43551F58A
:1028FC0051D3E55294FEE5519401406FE54C24010F
:10290C00F54CE4354BF54BE4354AF54AE43549F5DD
:10291C0049C3E54C9546FFE54B9545FEE54A954484
:10292C00FDE5499543FCAB50AA4FA94EA84DD312D7
:10293C001D184031AF4CAE4BAD4AAC4978A1E6F511
:10294C006C08E6F56D855A6E855B6F855C70123888
:10295C00268F59E5596007E4F553F554F555E4F520
:10296C0051F5528006435380E4F555E5556003025A
:10297C002812800E7BFF7A3879CE1217E4E4F553D7
:06298C00F554AE53AF54F8
:012992002222
:082374008F468E458D448C4319
:10237C00755E0185495F854A60E4F559F55AF55754
:10238C00F558F556F555F554F553789EE6B4020F0D
:10239C0078AF121D7F8F528E518D508C4F800D78DF
:1023AC009DE6FFE48F52F551F550F54F85464E856D
:1023BC00454D85444C85434BAF4EAE4DAD4CAC4B6F
:1023CC0078A1E6F56C08E6F56D855E6E855F6F8528
:1023DC0060701238268F5DE55D6003022578AB5E78
:1023EC00AA5FA960AF58AE57123A648F5BE55B6485
:1023FC00E570030224E8E55B70030224E8123A5509
:10240C008F5CE55C540E60030224E8055AE55A70B3
:10241C0002055965487004E559654760030224E8D4
:10242C00789EE664047050E5582415123A59E48FEE
:10243C0056F555F554F553AE55AD54AC53780812CA
:10244C001D3C8F568E558D548C53E5582414123ADE
:10245C0059E4E5564FF556E555F555E554F554E573
:10246C0053F553AF56AE55AD54FC7808121D3C8F46
:10247C00568E558D548C53E558241B123A59E4E56D
:10248C00564FF556E555F555E554F554E553F553CA
:10249C00AF56AE55AD54FC7808121D3C8F568E5578
:1024AC008D548C53E558241A123A59E4E5564FF5DD
:1024BC0056E555F555E554F554E553F553123A5593
:1024CC008F5CE55C30E412E556F556E555F555E5BF
:1024DC0054F554E5534410F553E4F55B742025583A
:1024EC00F558E43557F557D3E55894FEE557940164
:1024FC004071E54E2401F54EE4354DF54DE4354C77
:10250C00F54CE4354BF54BC3E54E9546FFE54D9543
:10251C0045FEE54C9544FDE54B9543FCAB52AA5169
:10252C00A950A84FD3121D184036AF4EAE4DAD4C2E
:10253C00AC4B78A1E6F56C08E6F56D855E6E855FB3
:10254C006F8560701238268F5DE55D600CE4F55682
:10255C00F555F554755380F55BE4F557F558800344
:10256C00E4F55BE55B60030223EA800AE4F556F5CB
:10257C0055F554755380E4FFFEFDFCAB56AA55A9E6
:10258C0054A853C3121D187009F556F555F554751A
:0A259C005380AF56AE55AD54AC535A
:0125A6002212
:041E35008E438F4405
:101E3900756C02756D00AA06A907756E018A6F890E
:101E4900707F007E007D007C001238268F46AA43F1
:101E5900A9447B01E4FFFE123A648F45E54564EB32
:101E6900605AE54564E96054AA43A9447FC60E1245
:101E790036E08F638E628D618C60756C02756D00C2
:101E8900756E0185436F8544701238268F46AA43C3
:101E9900A9447B01E4FFFE123A648F45E54564EBF2
:101EA9006011E54564E9600B7BFF7A3879E0121728
:101EB900E480097BFF7A3879F71217E4AA43A94429
:101EC9007B017F0B7E001237BC78A1A60608A60706
:101ED900AA43A9447B017F0D7E00123A64789DA62E
:101EE90007AA43A9447F0E1237BC8E478F48AA43DD
:101EF900A9447B017F107E00123A648F49AA43A945
:101F0900447F111237BC8E4A8F4BAA43A9447B01E7
:101F19007F137E001237BC8E4C8F4DAA43A9447B98
:101F2900017F167E001237BC8E4E8F4FAA43A944FB
:101F39007B017F207E001236E08F538E528D518CAB
:101F490050AA43A9447B017F247E001236E08F57B3
:101F59008E568D558C54AA43A9447B017F2C7E0053
:101F69001236E08F5F8E5E8D5D8C5CE4E5482563FB
:101F7900FFE5473562FEE43561FDE43560FC78AB89
:101F8900121D98E54BAE4A7805C333CE33CED8F946
:101F9900FF78A1E6FC08E6FD24FFFBEC34FFCB2F1C
:101FA900FFEB3EFE121B58E4FCFD78AF121D98AF03
:101FB90049E4FCFDFEAB57AA56A955A854121BE5E6
:101FC900A804A905AA06AB07E4FCFDEB2548FFEA2E
:101FD9003547FEED39FDEC38FC78AF121D8BEF2B40
:101FE900FFEE3AFEED39FDEC38FCEF2563FFEE35E7
:101FF90062FEED3561FDEC3560FC78A7121D98E5B0
:102009005F24FEFFE55E34FFFEE55D34FFFDE55C20
:1020190034FFFCC004A905AA06AB07789DE6FFE4D6
:10202900FCFDFED000121BE578A7121D8BEF2BFFDC
:10203900EE3AFEED39FDEC38FC78A3121D9878A034
:102049007602E54F454E600DE4854F5B854E5AF5A6
:1020590059F558800C85575B85565A8555598554CD
:1020690058E54D454C600FAE4CAF4DE4FCFD900476
:1020790000121DA4800EAF53AE52AD51AC50900466
:1020890000121DA4AF49E4FCFDFEAB5BAA5AA95995
:10209900A858121BE578AF121D8BEF2BFBEE3AFA0D
:1020A900ED39F9EC38F8E4FCFDEB2548FBEA354756
:1020B900FAED39F9EC38F8900400E0FCA3E0FDA34F
:1020C900E0FEA3E0C39BFFEE9AFEED99FDEC98FCC0
:1020D900A3121DA4789DE6FFE4FCFDFEF8F9FAAB16
:1020E90007900404E0FCA3E0FDA3E0FEA3E0FF12D7
:1020F9001C708F678E668D658C64E47FF57EFFFDAD
:10210900FCAB67AA66A965A864C3121D18500978B3
:0E2119009E76027546F18004789E7604AF46ED
:012127002295
:08366F008F4A8E498D488C47FB
:10367700E4FFFEFDFCAB4AAA49A948A847C3121DAF
:1036870018700F78A3121D7F8F4E8E4D8D4C8C4B6B
:10369700803EE54A24FEFFE54934FFFEE54834FF56
:1036A700FDE54734FFFCC004A905AA06AB07789DD2
:1036B700E6FFE4FCFDFED000121BE578A7121D8B88
:1036C700EF2BF54EEE3AF54DED39F54CEC38F54B61
:0836D700AF4EAE4DAD4CAC4B03
:0136DF0022C8
:083426008F268E258D248C23D6
:10342E00E47F04FEFDFCAB26AA25A924A823121BCB
:10343E00E5C004C005C006C00778A1E6FE08E6FF99
:10344E00E4FCFDF8F9AA06AB07D007D006D005D0EC
:10345E0004121C7078AB121D8BEF2BFFEE3AFEEDB3
:10346E0039FDEC38FC78A1E6F56C08E6F56D756E65
:10347E000185276F852870123826E47F04FEFDFC37
:10348E00AB26AA25A924A823121BE5C004C005C09B
:10349E0006C00778A1E6FE08E6FFE4FCFDF8F9AAEF
:1034AE0006AB07D007D006D005D004121C70AE02B2
:1034BE00AF03AA27A9287B011236E0EFEEEDEC54FC
:0234CE000FFCF1
:0134D00022D9
:0832C7008F0B8E0A8D098C08A3
:1032CF00E4F50EAF0BAE0AAD09AC0812366F8F16D0
:1032DF008E158D148C138F128E118D108C0F789D6F
:1032EF00E6FFE4EF2516FFE43515FEE43514FDE4A3
:1032FF003513FCAB12AA11A910A80FC3121D186029
:10330F0036AF12AE11AD10AC0F78A1E6F56C08E632
:10331F00F56D756E01850C6F850D701238268F0E49
:10332F00E5122401F512E43511F511E43510F5100D
:10333F00E4350FF50F80A7AF0BAE0AAD09AC0885CA
:10334F000C27850D281234268F0B8E0A8D098C08B9
:10335F0074FFFFFEFD7C0FAB0BAA0AA909A808C3D7
:0A336F00121D1860030232D2AF0EE7
:013379002231
:1039A6008D49EF70077F40123AE080057F40123A5A
:1039B600F77F80123AF7AF49123B037F80123AE055
:0A39C6007FFF123B037F40023AF737
:103904007D38E4FF1239A67F017E001239D07D484C
:10391400E4FF1239A67F017E001239D07D01E4FF55
:103924001239A67F027E001239D07D0CE4FF1239D1
:08393400A67F017E000239D0DC
:0835EA008D438B448A4589469C
:1035F200EFF46010EF4480FDE4FF1239A67F017EF4
:10360200001239D0E5437038F547AB44AA45A946C4
:10361200854782F583121AF7F548E548604EFD7F2B
:10362200011239A67F017E001239D00547AB44AAA8
:1036320045A946854782758300121AF7F54880DA54
:10364200E4F547E547C395435022AB44AA45A94652
:10365200854782758300121AF7F548FD7F011239FA
:0C366200A67F017E001239D0054780D7FA
:01366E002239
:053ADB00EFF452A022EF
:043AEF00EF42A022E0
:10314200E4F54374452543F8E4F60543E543B40B3F
:10315200F274FFF553F552F551F550E4F543123A86
:10316200CC8F44E544C394304017E544D39439509E
:103172001074452543F8A6440543AF44120003806A
:1031820050E54464086005E544B47F1A154374456C
:103192002543F8E4F67F081239F67F201239F67FCC
:1031A200081239F6802BE544640D6005E544B40A43
:1031B2001D7B007A0079451230648F538E528D51F7
:1031C2008C507F0D1239F67F0A1239F68003E4F52E
:1031D20044E543B40A1B7B007A0079451230648FC0
:1031E200538E528D518C507F0D1239F67F0A12394F
:1031F200F674FFFFFEFDFCAB53AA52A951A850C3BF
:10320200121D187003023160AF53AE52AD51AC5073
:013212002299
:033B03008F80228E
:053AE000EFF452B022DA
:043AF300EF42A022DC
:043AF700EF42B022C8
:083826008F6B8E6A8D698C68BE
:10382E00E4F572123AE58F717F10123AEAAF6BAE81
:10383E006AAD69AC68A971A801121D3C8F778E76AE
:10384E008D758C747F11122D6E8F72E572700FABA9
:10385E006EAA6FA970AF6DAE6C122E6E8F727F1046
:0C386E00123AFBE57260037572F0AF7255
:01387A00222B
:1025A7005344204361726420496E697469616C69A0
:1025B7007A6174696F6E202E2E2E200A0D00434D0E
:1025C70044302073656E74202E2E2E2000526573C2
:1025D700706F6E7365203D2025322E3262580A0DCA
:1025E70000434D44382073656E74202E2E2E200034
:1025F700526573706F6E7365203D200025322E3251
:102607006258200A0D0056657273696F6E2031207B
:102617005344204361726420646574656374656420
:102627002E0A0D005374616E6461726420436170F9
:1026370061636974792043617264206465746563BA
:102647007465642E0A0D0025322E3262582000561A
:10265700657273696F6E2032205344204361726440
:102667002064657465637465642E0A0D00434D44E8
:1026770035382073656E74202E2E2E200041434D71
:102687004434312073656E74202E2E2E2000486945
:10269700676820436170616369747920436172647C
:1026A7002044657465637465640A0D005374616E34
:1026B7006461726420436170616369747920436166
:1026C70072642044657465637465640A0D00434D44
:1026D7004431362073656E74202E2E2E20005265ED
:1026E70073706F6E7365203D2025322E326258203D
:1026F7000A0D00426C6F636B2073697A65207365FE
:102707007420746F203531322062797465730A0D35
:102717000053442054696D656F7574204572726F5C
:102727007200496C6C6567616C20436F6D6D616EFB
:10273700640A0D00526573706F6E7365204572727F
:102747006F72004461746120546F6B656E2045722F
:10275700726F7200496E636F6D70617469626C6548
:1027670020566F6C746167650043617264206973FA
:1027770020496E61637469766500535049206F7212
:102787002054696D656F7574204572726F720055BC
:0D2797006E6B6E6F776E204572726F720070
:0B2D6300E4F577F576F575F5747F3A1E
:022D6E008F7361
:102D7000E4F579E573C394404003022E68E573449B
:102D800040F5787B007A00797AFF12387B8F7BE5FB
:102D90007B701CAF77AE76AD75AC747818121D29B8
:102DA0008F787B007A00797A12387B8F7B8003756D
:102DB0007987E579702FE57B702BE577F577E576F8
:102DC000F576E575F575E4F574AF77AE76AD75AC6F
:102DD000747810121D298F787B007A00797A123866
:102DE0007B8F7B8003757987E579702DE57B702972
:102DF000E577F577E576F576E4F575F574AF77AEBA
:102E000076AD75AC747808121D298F787B007A0036
:102E1000797A12387B8F7B8003757987E579701812
:102E2000E57B7014E577FFE48F78FB7A00797AAF61
:102E30007812387B8F7B8003757987E579702CE574
:102E40007B7028E5737005757895800DE573B4087F
:102E50000575788780037578017B007A00797AAFF1
:0D2E60007812387B8F7B8003757982AF7903
:012E6D002242
:07321300FB7A0079467F0100
:08321A008F578B588A59895A1D
:10322200E4F55EF55FF55B7B007A00795D7FFF1266
:10323200387B8F5C055FE55F7002055EE55DB4FF7C
:103242000AE55F455E6004E55C60DCE55C6005758F
:103252005B878061E55F455E7005755B818056AB7B
:1032620058AA59A95AE55D121B24E55D6004640160
:103272007040E557D39401403C755E00755F01C311
:10328200E55F9557E55E9400502B7B007A00795DEF
:103292007FFF12387B8F5CAB58AA59A95A855F828F
:1032A200855E83E55D121B36055FE55F70D1055EC5
:1032B20080CD755B837B007A00795D7FFF12387B5E
:0432C2008F5CAF5B13
:0132C60022E5
:0A2E6E008E738F748B758A76897756
:102E7800E4F57BF57CF5797B007A00797A7FFF129F
:102E8800387B8F78057CE57C7002057BE57A30E736
:102E98000AE57C457B6004E57860DCE578600675CA
:102EA8007987022F5DE57C457B7006757981022F55
:102EB8005DE57A6003022F5AF57BF57C7B007A008A
:102EC800797A7FFF12387B8F78057CE57C70020564
:102ED8007BE57AB4FF0AE57C457B6004E57860DC35
:102EE800E5786005757987806CE57C457B700575AC
:102EF80079818061E57A64FE7053F57BF57CC3E5E2
:102F08007C9574E57B957350287B007A00797A7FED
:102F1800FF12387B8F78AB75AA76A977857C828576
:102F28007B83E57A121B36057CE57C70D1057B80B6
:102F3800CD7B007A00797A7FFF12387B8F787B000F
:102F48007A00797A7FFF12387B8F788008757984C8
:102F580080037579837B007A00797A7FFF12387B4A
:042F68008F78AF7936
:012F6C002242
:10102400E4F544781A76FF7F10123AFB7BFF7A25A9
:1010340079A71217E4E4F5437B007A00794E7FFF29
:1010440012387B8F450543E543C3940A40EA7F8009
:10105400123ADB7BFF7A2579C51217E47F10123A26
:10106400EAE4F577F576F575F574FF122D6E8F4584
:10107400E54570131232138F457BFF7A2579D485A9
:10108400466B1217E480057F10123ADB7F10123A88
:10109400FB7F80123AEFE5456002F544E5446003C6
:1010A4000211837F80123ADB7BFF7A2579E81217DD
:1010B400E47F10123AEAE47577AA757601F575F5BE
:1010C400747F08122D6E8F45E5456003021174FB91
:1010D4007A0079467F0512321A8F457F10123AFB47
:1010E4007F80123AEFE545603F7BFF7A2579F7125E
:1010F40017E47BFF7A26790385466B1217E4E545EE
:10110400B48320E546B4051BE4F544781A76097BDC
:10111400FF7A26790D1217E47BFF7A26792B1217B2
:10112400E4805C85454480577BFF7A2579F7121764
:10113400E4E4F5437BFF7A26794E74462543F8E6CA
:10114400F56B1217E40543E543C3940540E67F0DB0
:101154001200037F0A120003E54A64AA600375457E
:1011640083781A76027BFF7A2679561217E4800F69
:101174007F10123AFB7F80123AEF7F10123ADBE5C0
:1011840044600302120E7F80123ADB7BFF7A2679D9
:10119400741217E47F10123AEA122D638F45E54565
:1011A4007053FB7A0079467F0512321A8F457F10FF
:1011B400123AFB7F80123AEF7BFF7A2579F71217F8
:1011C400E4E4F5437BFF7A26794E74462543F8E63A
:1011D400F56B1217E40543E543C3940540E67F0D20
:1011E4001200037F0A120003E54854FC64FC6014F7
:1011F400754585800F7F10123AFB7F80123AEF7F8E
:1012040010123ADBE5456002F544E544600302123E
:10121400E9781AE6B4020CE4F552F551F550754F2D
:10122400408009E4F552F551F550F54FE4F556F5D3
:1012340055F554F5537F20123ADB7BFF7A267984E7
:101244001217E47F10123AEAE4F577F576F575F5AE
:10125400747F37122D6E8F45E54570051232138F5A
:1012640045E54664016004E546701385527785516F
:1012740076855075854F747F29122D6E8F45E5450F
:1012840070031232137F10123AFBE5562401F5560F
:10129400E43555F555E43554F554E43553F553E444
:1012A400FFFEFDFCAB56AA55A954A853C3121D1842
:1012B4007003754581E54630E004E5456085E54504
:1012C40070137F20123AEF7BFF7A2579D485466B21
:1012D4001217E4800A7F80123AEF7F10123ADBE59E
:1012E400456002F544E54460030213F6781AE664A7
:1012F4000260030213F67F80123ADB7BFF7A2679C1
:10130400741217E47F10123AEA122D638F45E545F3
:1013140060030213DCFB7A0079467F0512321A8FD0
:10132400457F10123AFB7F80123AEF7BFF7A2579D2
:10133400F71217E4E4F5437BFF7A26794E744625C9
:1013440043F8E6F56B1217E40543E543C3940540FF
:10135400E67F0D1200037F0A120003E54720E7062B
:101364007545860213EBE54754C0FFBFC00FE47810
:101374001AF67BFF7A2679951217E4806A781A7632
:10138400097BFF7A2679B31217E47F80123ADB7B5C
:10139400FF7A2679D51217E47F10123AEAE4F5773A
:1013A400757602F575F5747F10122D6E8F45E5453F
:1013B40070351232138F457F10123AFB7F80123A38
:1013C400EF7BFF7A2679E585466B1217E47BFF7A7B
:1013D4002679FA1217E4800F7F10123AFB7F8012ED
:1013E4003AEF7F10123ADBE5456007F544AF44124B
:0C13F400374EE5446004FF12374EAF4452
:0114000022C9
:053AE500781AE6FF2243
:10374E008F57E557B481097BFF7A2779180217E462
:10375E00E557B482097BFF7A2779290217E4E557EA
:10376E00B483097BFF7A27793B0217E4E557B484CB
:10377E00097BFF7A27794A0217E4E557B485097B5E
:10378E00FF7A27795B0217E4E557B486097BFF7A47
:10379E002779700217E4E557B487097BFF7A2779FA
:0E37AE00810217E47BFF7A2779961217E42236
:10355E00E4F543AB07AA06A905A804FF7E407D1932
:10356E007C01121C70EFD39402500575C3708069F4
:10357E00EFD39402400BEFD39404500575C37180C2
:10358E0058EFD39404400BEFD39408500575C372D3
:10359E008047EFD39408400BEFD39410500575C3BA
:1035AE00738036EFD39410400BEFD39420500575F3
:1035BE00C3F08025EFD39420400BEFD394405005F9
:1035CE0075C3F18014EFD39440400BEFD394805029
:0B35DE000575C3F2800375430FAF4377
:0135E90022BF
:10387B00E4FDFC8FC5AFC4757D008F7E0DBD0001CF
:10388B000CE57E54F07004ED4C70EAED4C601BE5DA
:10389B007E5470700AE5C5121B24E4FCFD80147481
:1038AB00FF121B247C007D01800974FF121B247CFA
:0538BB00007D80AF0557
:0138C00022E5
:043AFB00EF429022E4
:053AEA00EFF4529022F0
:1039D0005389F0438901C2A9758CF4758A3DC28D63
:1039E000D28C308DFDC28CEF1F70011ED3EF94007E
:0639F000EE940050E322FA
:10393C0053873F438780C2AC759852E4F59BFCFDDE
:10394C007BC0FAF9F8121BE5A804A905AA06AB0777
:10395C00E4FFFE7D2F7C0D121C70EFF404F59A75BC
:05396C009B1ED2992210
:1039F600E4FDFC0DBD00010C209904ED4C70F4EDC6
:0F3A06004C60088F99AE07C29980027EF1AF061F
:013A1500228E
:073ACC003098FDAF99C2988C
:013AD30022D0
:10397100E4F5C8FCFDFEFB7A4079197801121BE5DC
:10398100E47B707A17F9F8121C70C3E49FFFE49E80
:10399100AD07AE05F5CDF5CB8ECC8ECAC2CFD2AD7B
:0439A100D2AFD2CA05
:0139A50022FF
:043AFF0043870122D6
:103A1600E4FF123A3FC291D290E4FF123A3FD291AC
:0F3A26003091FDA29092042004037F00227F01C3
:013A3500226E
:022AEC008F5603
:102AEE00E47893F608F608F608F6C20008F6C20176
:102AFE00E55BD394004021855A64855963855862FD
:102B0E00855761855B65E4F566F567F568F569AF30
:102B1E00561229937897A607D290D291209103024C
:102B2E002C25209003022C25123A6DE55625E078CF
:102B3E0093F64401F6C290E408F6087608E4FF1214
:102B4E003A3FC291789516E6FF7893E6FEA80708FD
:102B5E008002C313D8FC139201A201123A3BD29108
:102B6E003091FDA2909200A200300101B350047882
:102B7E009776017895E660057897E660C0123A166A
:102B8E00EF60037F0222E55CD3940040697897E6FC
:102B9E00706478957608E4FF123A3FC291789516E4
:102BAE00D29008E6FF25E0F6E4FF123A3FD29130CC
:102BBE0091FDA2909200A200E433789646F618E6B4
:102BCE0070D408E6FFAB5DAA5EA95F7894E6F58245
:102BDE00758300EF121B36789406D55C04D2018003
:102BEE0002C201E4FF123A3FC291A201123A3BD255
:102BFE009120919280FB7897E66401601AE4FF12AF
:102C0E003A3FC291C290E4FF123A3FD2913091FD09
:0B2C1E007F01123A3FD2907897E6FF4A
:012C29002288
:093A3600139203A2039290E4FF35
:103A3F00308E03308FFDC28EEF700A758DFF758B40
:063A4F00C3C28FD28E22DB
:103A6D0053890F438910C2AB758DFF758BC3C28F00
:033A7D00D28E22C4
:10299300E47898F608F608F608F6C20208F6C203C9
:1029A300D290D291209103022AC7209003022AC712
:1029B300123A6DEF25E07898F6C290E408F60876AF
:1029C30008E4FF123A3FC291789A16E6FF7898E638
:1029D300FEA807088002C313D8FC123A36D29130FE
:1029E30091FDA2909202A202300301B35004789C9D
:1029F3007601789AE66005789CE660C5123A16EF90
:102A030060037F0222E565D39400404C789A7608F0
:102A13007898A664E4FF123A3FC291789A16E6FFCB
:102A23007898E6FEA807088002C313D8FC123A364A
:102A3300D2913091FDA2909202A202300301B350D1
:102A430004789C7601789AE66005789CE660C51266
:102A53003A16EF60037F0222E566D394004065785F
:102A63009CE67060789A7608AB67AA68A96918E64D
:102A7300F582758300121AF77898F6E4FF123A3F4D
:102A8300C291789A16E6FF7898E6FEA807088002B6
:102A9300C313D8FC123A36D2913091FDA290920220
:102AA300A202300301B35004789C7601789AE66061
:102AB30005789CE660C51566789906123A16EF60AC
:102AC300977F0222789CE664016019E4FF123A3F83
:102AD300C291C290E4123A3FD2913091FD7F01122C
:082AE3003A3FD290789CE6FF17
:012AEB0022C8
:103A9300576520676F742070726F626C656D732158
:013AA3000022
:10337A00E4F544E4756401F563F562F56175650188
:10338A00F566F5677568007569457F43122993E408
:10339A00F55AF559F558F557F55B755C01F55D7504
:1033AA005E00755F487F43122AEC8F431544E5435C
:1033BA006004E54470BD7BFF7A00792E7F431234A6
:1033CA00D18F43E54360097BFF7A3A79931217E478
:1033DA007FE87E031239D07BFF7A0F79CC7F4312C4
:1033EA0034D18F43E54360097BFF7A3A7993121708
:1033FA00E47FE87E031239D07BFF7A0F79FE7F43A0
:10340A001234D18F43E54360097BFF7A3A799312EC
:0B341A0017E47FE87E031239D0AF43B7
:013425002284
:0834D1008F4B8B4C8A4D894E94
:1034D900E4F554F555755232AB4CAA4DA94E8555B4
:1034E90082855483121AF7F5510555E55570020581
:1034F90054F582855483121AF7F54F0555E5557031
:10350900020554E4855164F563F562F56175650159
:10351900756601F56775680075694FAF4B12299398
:103529008F531552E5536004E55270D7E485515A1B
:10353900F559F558F557755B01755C01F55D755ED3
:1035490000755F50AF4B122AECE551F46004E55267
:043559007083AF5379
:01355D00224B
:10002E003A012A0428002900200021002200230082
:10003E00240025002600270028012802218F2803EE
:10004E002100280428052806280728082809280A38
:10005E00280B280C20802190280D20002100280E2E
:10006E0020812191280F2000219228102100281193
:10007E0021932812210028132814281520822816CF
:10008E0020002817281828192194281A2195281B92
:10009E002196281C2100281D2083281E2000281FA1
:1000AE0021972820210028212822282328242825AA
:1000BE002826282728282829282A2084282B20008B
:1000CE00282C282D282E282F28302831283220851C
:1000DE002833200028342835283628372198283808
:1000EE0021002839283A283B283C283D283E283F25
:1000FE002840284128422843284428452846284796
:10010E0028482849284A284B284C284D284E284F45
:10011E0028502851285228532854285528562857F5
:10012E0028582859285A285B285C285D285E285FA5
:10013E002860286128622199286321002864286597
:10014E002866286728682869286A286B286C286D15
:10015E00286E286F287028712872287328742875C5
:10016E002876287728782879287A287B287C287D75
:10017E00287E287F28802881288228832884288525
:10018E002886288728882889288A288B288C288DD5
:10019E00288E288F289028912086289220872893B1
:1001AE002000289428952896289728982899289AE8
:1001BE00289B289C289D289E289F219A28A02100B4
:1001CE0028A128A228A328A428A528A628A728A8BD
:1001DE0028A928AA28AB28AC28AD28AE28AF28B06D
:1001EE0028B128B228B328B428B528B628B728B81D
:1001FE0028B9208828BA200028BB208928BC2000D6
:10020E0028BD28BE28BF28C028C128C228C3219BCC
:10021E0028C4210028C528C628C728C828C928CA26
:10022E0028CB28CC28CD28CE28CF28D028D128D20C
:10023E0028D328D428D528D628D728D828D928DABC
:10024E0028DB28DC28DD28DE28DF28E028E1208ACC
:10025E0028E2208B28E3200028E428E528E628E77A
:10026E0028E828E928EA28EB28EC28ED28EE28EFE4
:10027E0028F028F128F228F328F428F528F628F794
:10028E0028F8208C28F92000219C28FA219D28FB93
:10029E00208D219E28FC208E219F28FD20002100EC
:1002AE0028FE28FF2A0128002201239524892507EC
:1002BE0026A42707280121C72200238026C4270C45
:1002CE0028022009211C220426AA270A280320001E
:1002DE002100220023A626A0270728042805200592
:1002EE00238426B427092806200022032300248114
:1002FE0025C026AB270A280721AE22002395248984
:10030E00250726A42700280821482201238026C479
:10031E00270C280920092104220426AA270A280AC4
:10032E0020002100220023A826A42707280B280C32
:10033E0021402220238026C4270C280D222426C6E5
:10034E00280E219E220026C8280F200921022214E1
:10035E0026AA270A2810200521002200238426B46D
:10036E0027092811200021012300240125C026ABD6
:10037E00270A281221C32395248925072620270022
:10038E002813200321C223832626270D281421B3E8
:0E039E0022082815200021C6220023952600E3
:1003AC0027082816210023002496250326AA270AAD
:1003BC002817204221B623802489250728182000DD
:1003CC0021002394260E2819200F238426B42709F4
:1003DC00281A2000239326A82703281B2628270049
:1003EC00281C21012300240125C026AB270A281D27
:1003FC0021C523952489250726202700281E2100A6
:10040C0023942600270A281F260E28202003217952
:10041C00220123832626270D282121322822200081
:10042C00210422002380240025FC26AA270A282345
:10043C00210023002500282421A3220D2380249EA3
:10044C00253B2825204221572201248925072826CF
:10045C0020002143220D240025382827210822982A
:10046C002395248925072624270028282042219318
:10047C002201238026AA270A28292003217E220470
:10048C0023832626270D282A200021B0220023951D
:10049C0026A02707282B21002300240C250426AA9C
:1004AC00270A282C21022380248625C326AB282D3D
:1004BC002042219722012489250726AA282E2000D4
:1004CC0021002200241F2504282F21B223952489E2
:1004DC0025072620270428302042218B2204238044
:1004EC0026AA270A2831200021B12200239526A014
:1004FC002707283220032175220423832626270D63
:10050C002833200521002200238426B4270928340F
:10051C00200021602300240125C026AB270A2835A2
:10052C00210822982395248925072624270028367C
:10053C0021BC2200283721A3220D2300240125C031
:10054C0026AB270A28382160220023802400253876
:10055C0026AA2839210622982395248925072624A2
:10056C002700283A21BE2200283B200521002384A5
:10057C0026B42709283C200021602300240125C033
:10058C0026AB270A283D21422201239524892507E1
:10059C0026242700283E210C229826A42707283F32
:1005AC0021082840216022002300240125C026AB0D
:1005BC00270A2841210C22982395248925072624D3
:1005CC0027002842200521002200238426B4270975
:1005DC002843200023802400251026AB270A28441A
:1005EC00212222012395248925072624270028452A
:1005FC002100220023002404251226AA270A2846BB
:10060C00200321D422052383248925072626270DA0
:10061C0028472000216022002300240125C026AB9E
:10062C00270A284821B32395248925072600270863
:10063C002849210023002409250026AA270A284A34
:10064C00210223802486253B284B204221DD2205D4
:10065C0024892507284C200021002200241F250076
:10066C00284D21B323952489250726202700284EC1
:10067C00210023002497250326AA270A284F20426D
:10068C0021E22205238024892507285020002110EF
:10069C0022002300248025CC26AB285121002240A7
:1006AC0023B42489250726AA27042852220023B024
:1006BC002692270928532114220123952600270866
:1006CC002854214823A4262A27002855210022003B
:1006DC0023002409250026AA270A2856210823804E
:1006EC002486253B285720422111220724892507DF
:1006FC002858200021002200241F250028592114ED
:10070C00220123952489250726202700285A211603
:0E071C0026022709285B2100220023002480EA
:10072A00254826AA270A285C23A0248925072614F7
:10073A002709285D2480255026A42704285E21162F
:10074A0022012395248925072700285F21042200F6
:10075A002300249C257826AA270A28602143220DF3
:10076A00240125C426AB286121032200241528620E
:10077A0021002400250026AA2863215E23952489C6
:10078A00250726102709286421032300241525C4D8
:10079A0026AB270A2865210023802400250626AADD
:1007AA002866248F25E326AB2867204221CD22071D
:1007BA002489250726AA2868200021602200230010
:1007CA00240125C026AB286921002380248F250314
:1007DA0026AA286A204221DD220724892507286BB8
:1007EA0020002143220D2300240125C026AB286CBA
:1007FA00210022002400250426AA286D2003217F37
:10080A0022012383248925072626270D286E2162A3
:10081A00286F200521002200238426B42709287086
:10082A00200021062395260027082871210123008C
:10083A002497253B26AA270A28722042210E22083D
:10084A0023802489250728732003213C220B238334
:10085A002626270D2874200021032200239526022C
:10086A002708287521272300248125C426AB270AB7
:10087A002876210023802409254826AA287721588A
:10088A00223423A324892507262A27002878210031
:10089A00220023A026002709287921072380240380
:1008AA00253926AA270A287A21042300241C253858
:1008BA00287B2107238024832539287C210323953B
:1008CA002489250726022708287D21272300248139
:1008DA0025C426AB270A287E21002380240925481F
:1008EA0026AA287F2158223423A324892507262AC9
:1008FA0027002880210622002300248125C0269370
:10090A0027012881210023802489254826AA270A2D
:10091A0028822002216622082300240025662883D3
:10092A002000210022002380241F2502288421067A
:10093A002489250726DC270C2885210023AA26AA34
:10094A00270A288623B62600270828872380248694
:10095A00253B26AA270A288821052489250726DC7B
:10096A00270C2889210023AA26AA270A288A23B61F
:10097A0026002708288B23802486253B26AA270AB7
:10098A00288C2042217B220824892507288D2000D3
:10099A0021002200230024012582288E210524819A
:1009AA0025C226AB288F200321932208238324897A
:1009BA0025072626270D289020002105220023003E
:1009CA00248125C026132701289121002380248908
:1009DA00254826AA270A28922002217E22082300D7
:1009EA002400256628932000210022002380241F4A
:1009FA002502289421052489250726DC270C289519
:100A0A00210023AA26AA270A289623B62600270801
:100A1A00289723802486253B26AA270A2898210579
:100A2A002489250726DC270C2899210023AA26AA2F
:100A3A00270A289A2380241F2502289B21012300A4
:100A4A00248125C226AB289C2003219322082383D4
:100A5A00248925072626270D289D20002104220007
:100A6A00239526122708289E216023C426AA270434
:100A7A00289F210023C02600270928A0204221CB35
:100A8A002208238026AA270A28A12070215422B8E6
:0E0A9A0023952612270828A2200221CC22082C
:100AA800238026AA270A28A3200321CA220F2383EA
:100AB8002626270D28A42000210022002300248CAC
:100AC800250C26AA270A28A521042482257828A6E9
:100AD80021002380248925482612270428A72003DB
:100AE80021DE220F238325072626270D28A820008C
:100AF800210122002300249C257826AA270A28A958
:100B0800210023802481254028AA200321CF220FF9
:100B18002383248925072626270D28AB2070210842
:100B280022B8239526A0270428AC200321D4220F1D
:100B380023832626270D28AD2127220B28AE2070D7
:100B4800216322B823952612270828AF2000210107
:100B580022002380248625CB26AB270A28B02042F2
:100B680021DD22082489250726AA28B1200021187A
:100B78002280239526A4270028B2200321D9220FFA
:100B880023832626270D28B32070210A22B823950F
:100B980026A0270028B4200221E02208238026AAC4
:100BA800270A28B52070210A22B8239526A02700F5
:100BB80028B621542602270828B7200021182280A9
:100BC80026A4270028B82100220023802480254855
:100BD80026AA270A28B92070215E22B823952489DD
:100BE80025072612270828BA200021002200238082
:100BF8002409254B26AA270A28BB2070215F22B882
:100C08002395248925072610270828BC20002100C1
:100C180022002300241C258326AB270A28BD200395
:100C2800213222092383248925072626270D28BE59
:100C380020002100220023002482258C26AB270ACD
:100C480028BF200321252209238324892507262656
:100C5800270D28C0204221BC238026AA270A28C1A4
:100C68002000210122002300240125C026AB28C230
:100C78002070210F22B823952489250726202700D4
:100C880028C3200321E3220F23832626270D28C407
:100C9800200521002200238426B4270928C5200026
:100CA800210323952614270828C621A623A4262A2B
:100CB800270528C7210023A02644270928C821186A
:100CC800226D2380249E257B26AA270A28C9204234
:100CD8002113220B2489250728CA200021AE2200CF
:100CE80023952624270028CB21002203238024874C
:100CF800257B26AA270A28CC20422116220B2489E4
:100D0800250728CD200021AE220023952624270080
:100D180028CE20052100238426B4270928CF2003C4
:100D2800210D220B23832626270D28D02000210001
:100D38002200230024802602270028D123802409AA
:100D48002548261E28D221582234233324802507FB
:100D5800262A28D32100220023002680271028D401
:100D680021102363262A270028D52100236026A8DE
:100D7800271228D621AF224C230026C8270C28D7B3
:100D8800210022002680270528D823802486253B99
:100D9800261E270028D92042211C220E2300248049
:100DA800250728DA20002135222926C4270C28DB2C
:100DB8002002211D220E261E270028DC2000217F6C
:100DC800223426C4270C28DD210022002390249FEA
:100DD80025042610270A28DE2300248425002680DF
:100DE800271028DF2106236324802507262A2700C9
:100DF80028E021002380248926AA270A28E1200543
:100E0800238426B4270928E22070216122B823957B
:0E0E18002612270828E3200021012200238053
:100E2600248625C326AB270A28E4204221CE220F9A
:100E36002489250726AA28E52070215022B8239563
:100E46002612270828E6200521002200238426B43E
:100E5600270928E72070216422B82395261227083F
:100E660028E82000210122002380248625C326AB02
:100E7600270A28E9204221D3220F2489250726AAFA
:100E860028EA2070215122B823952612270828EB3C
:100E9600200521002200238426B4270928EC20708F
:100EA600216522B823952612270828ED2000210166
:100EB60022002380248625C326AB270A28EE20425B
:100EC60021D8220F2489250726AA28EF207021522F
:100ED60022B823952612270828F020052100220093
:100EE600238426B4270928F12070216122B823958E
:100EF6002602270828F220002101220023802486CA
:100F060025C326AB270A28F3204221DD220F248998
:100F1600250726AA28F42070215022B823952602F8
:100F2600270828F5200521002200238426B4270956
:100F360028F6200021012380248625CB26AB270A0C
:100F460028F7204221E1220F2489250726AA28F81E
:100F56002000210222002300248125C426AB28F983
:100F6600210023802489254826AA28FA20052384DF
:100F7600250726B4270928FB2070214E22B8239581
:100F86002610270828FC2000210022002380248622
:100F960025C326AB270A28FD204221E7220F2489F4
:100FA600250726AA28FE200021BB220023952620FD
:100FB600270028FF20052100238426B427092A08B4
:100FC6001001FFFFFFFF3A00643A65BB083A09BB10
:100FD60050105267517705A1180454015521070096
:100FE600060C0B03501051005204610F64556555F1
:100FF60005A11804FFFFFFFF5407551006090B0251
:1010060061055006650052B86400510005A10D0047
:0E10160018040C05460748077201FFFFFFFF94
:0D3AB300C28C758C7CE4F58AC28DD28C2209
:102F6D008F468E458D448C43123AD48B178A18891F
:102F7D0019AF46AE45AD44AC4378C1121D98AF466E
:102F8D00AE45AD44AC4312366F78C5121D9878B37B
:102F9D00121DB00000000078B3121D7F78C5121D00
:102FAD008BEB2FFFEA3EFEE93DFDE83CFCAB17AA9B
:102FBD0018A919900004121BADF56D85F06C756E96
:102FCD0001756F0075700012382678B3121D7FEFF2
:102FDD002401FFE43EFEE43DFDE43CFC78B3121D0C
:102FED009878B9121DB00000000078B3121D7F78DB
:102FFD00C5121D8BEB2FFFEA3EFEE93DFDE83CFCC3
:10300D00AB17AA18A919900004121BADF56D85F028
:10301D006C756E01756F0275700012382678B312DB
:10302D001D7FEF2401FFE43EFEE43DFDE43CFC7812
:10303D00B3121D9878BD121DB000000000E478B7E2
:10304D00F60876017F0C12397178B8E67003C2CAA2
:07305D0022123AFF80F3226A
:03002B00021401BB
:10140100C0E0C0F0C083C082C0D075D000C000C0B1
:0D14110001C002C003C004C005C006C00732
:10141E00C2CF123AB378B7E6B4080040030217679A
:10142E00901435F828287302146702144D02171F02
:10143E0002167B02154302162102145A0216D530EB
:10144E00920302176778B77600021767309203028D
:10145E00176778B776040217673092030214FA30D2
:10146E008D030214FAD29378BBE6FE08E62400F54B
:10147E008274003EF583E0FF7B007A0079221238F9
:10148E007BC29378B9121D7FEF2401FFE43EFEE488
:10149E003DFDE43CFC78B9121D98E47FFF7E01FD12
:1014AE00FC78B9121D8BD3121D1840ADE47FFF7E60
:1014BE0001FDFC78BD121D8BD3121D184025AB17F4
:1014CE00AA18A919121ADEFFE4FCFDFE78B3121D4C
:1014DE008BC3121D18700678B77602800A78B7761D
:1014EE0003800478B77604D28D021467209203022B
:1014FE00176778B7E660030217677FFF7E01FDFC72
:10150E0078BD121D8BD3121D185003021767AB172F
:10151E00AA18A919121ADEFFE4FCFDFE78B3121DFB
:10152E008BC3121D18700778B7760202176778B74B
:10153E0076030217673092030215D6308D0302151B
:10154E00D6D29378BFE6FE08E62400F58274023EFA
:10155E00F583E0FF7B007A00792212387BC2937804
:10156E00BD121D7FEF2401FFE43EFEE43DFDE43C91
:10157E00FC78BD121D98E47FFF7E01FDFC78BD1244
:10158E001D8BD3121D1840ADE47FFF7E01FDFC784C
:10159E00B9121D8BD3121D184025AB17AA18A91905
:1015AE00121ADEFFE4FCFDFE78B3121D8BC3121D72
:1015BE0018700678B77607800A78B77605800478B3
:1015CE00B77600D28D02154320920302176778B7C3
:1015DE00E6640460030217677FFF7E01FDFC78B9A5
:1015EE00121D8BD3121D185003021767AB17AA18C2
:1015FE00A919121ADEFFE4FCFDFE78B3121D8BC38F
:10160E00121D18700778B7760702176778B7760538
:10161E0002176778B3121D7F78C5121D8BEB2FFF53
:10162E00EA3EFEE93DFDE83CFCAB17AA18A919906D
:10163E000004121BADF56D85F06C756E01756F00B3
:10164E0075700012382678B3121D7FEF2401FFE467
:10165E003EFEE43DFDE43CFC78B3121D9878B912D1
:10166E001DB00000000078B7760602176778B31237
:10167E001D7F78C5121D8BEB2FFFEA3EFEE93DFD67
:10168E00E83CFCAB17AA18A919900004121BADF583
:10169E006D85F06C756E01756F02757000123826CF
:1016AE0078B3121D7FEF2401FFE43EFEE43DFDE41E
:1016BE003CFC78B3121D9878BD121DB000000000DE
:1016CE0078B7760102176778C1121D7F75270075EE
:1016DE00280012342678C1121D9874FFFFFEFD7C7F
:1016EE000F78C1121D8BC3121D18601C78C1121DFC
:1016FE007F12366F78C5121D9878B3121DB0000098
:10170E00000078B77606805178B876001876068095
:10171E004878C1121D7F752702752800123426786D
:10172E00C1121D9874FFFFFEFD7C0F78C1121D8B38
:10173E00C3121D18601C78C1121D7F12366F78C53A
:10174E00121D9878B3121DB00000000078B7760114
:09175E00800778B87600187601C6
:10176700D007D006D005D004D003D002D001D000D6
:0B177700D0D0D082D083D0F0D0E03280
:102C2A00446F6E6520696E6974616C697A696E6752
:102C3A002055415254210D0A00446F6E6520696E79
:102C4A006974616C697A696E67204C4344210D0A84
:102C5A0000446F6E6520696E6974616C697A696E89
:102C6A006720535049210D0A00446F6E6520696E32
:102C7A006974616C697A696E6720535441303133E3
:102C8A00210D0A00446F6E6520696E6974616C6972
:102C9A007A696E672053442043617264210D0A00E9
:102CAA00496E70757420456E74727920233A20003B
:102CBA00496E76616C69642073656C656374696FCB
:102CCA006E2E20506C656173652073656C65637444
:102CDA0020612076616C696420656E7472792E00B9
:102CEA00456E747279206973206120646972656324
:102CFA00746F72792E2E2E4F70656E696E67206E14
:102D0A006F772E2E2E0D0A00456E74727920697324
:102D1A0020612066696C652E2E2E0D0A4F70656E35
:102D2A00696E67206E6F772E2E2E0D0A005344208F
:102D3A004361726420496E69742E2E2E00537464A6
:102D4A002E2043617061636974790048696768205D
:092D5A0043617061636974790042
:10212800123AD48B408A418942758E0C758F017F93
:102138000F123AF37FE0123AEF7F10123ADBE4789D
:1021480083F608F67883E6FE08E6FFE4FCFD7B608C
:102158007AEAF9F8C3121D02400A788406E670E4A8
:10216800180680E07F10123AEF7F807E2512393CF6
:102178007BFF7A2C792A1217E41239047BFF7A2C18
:1021880079431217E47BFF7A2D7937E4FDFF123586
:10219800EA7F807E1A7D067C0012355E7885A60768
:1021A8007BFF7A2C795B1217E412337A7BFF7A2C47
:1021B80079731217E47885E6600C7F10123ADB7F9A
:1021C800531239F680FE7F40123ADB1210247885CC
:1021D800A6077BFF7A2C798E1217E47885E6600CC7
:1021E8007F10123ADB7F431239F680FE7F40123AA5
:1021F800EF7F407E787D7D7C0112355E7885EFF635
:10220800600C7F10123ADB7F501239F680FEE478BA
:1022180083F608F67883E6FE08E6FFC3EE940250DC
:102228002274002FF58274003EF58374FFF0740069
:102238002FF58274023EF58374FFF006E670D51818
:102248000680D1123AE57886EFF6BF090F7BFF7A50
:102258002D7947E4FD7F401235EA80117886E670D3
:102268000C7BFF7A2D7955FD7F401235EA7E007F81
:1022780000121E357885A607AB40AA41A9429000F6
:1022880006121D4F788B121D98788B121D7F75478B
:10229800007548001227A4E4FCFD788F121D987B76
:1022A800FF7A2C79AA1217E4123142787F121D980E
:1022B800E4FFFEFDFC787F121D8BD3121D18401021
:1022C800788F121D7F787F121D8BD3121D18401333
:1022D8007BFF7A2C79BA1217E4123142787F121DEB
:1022E8009880CD7F80123ADB788B121D7F7881E64B
:1022F800FA08E68A47F548754900754A00122374BA
:102308007887121D987887121D7FE4FFFEFDEC5434
:1023180010FCE4FBFAF9F8C3121D18602A7BFF7A57
:102328002C79EA1217E47887121D7FEFEEEDEC5452
:102338000FFC7887121D987887121D7F12366F78E8
:102348008B121D980222917BFF7A2D79121217E4C5
:102358007887121D7FEFEEEDEC540FFC7887121D85
:0C236800987887121D7F122F6D022291C1
:03000000023AC001
:0C3AC000787FE4F6D8FD7581C80221284B
:101ADE00BB010689828A83E0225002E722BBFE0206
:091AEE00E32289828A83E4932239
:101AF700BB010CE58229F582E5833AF583E02250A4
:101B070006E92582F8E622BBFE06E92582F8E222ED
:0D1B1700E58229F582E5833AF583E4932207
:101B2400BB010689828A83F0225002F722BBFE01A0
:021B3400F3229A
:101B3600F8BB010DE58229F582E5833AF583E8F0E5
:101B4600225006E92582C8F622BBFE05E92582C891
:021B5600F22279
:101B5800BC000BBE0029EF8DF084FFADF022E4CC71
:101B6800F875F008EF2FFFEE33FEEC33FCEE9DEC3A
:101B7800984005FCEE9DFE0FD5F0E9E4CEFD22ED80
:101B8800F8F5F0EE8420D21CFEADF075F008EF2FCA
:101B9800FFED33FD4007985006D5F0F222C398FDBB
:051BA8000FD5F0EA2258
:101BAD00BB0110E58229F582E5833AF583E0F5F076
:101BBD00A3E0225009E92582F886F008E622BBFE53
:101BCD000AE92582F8E2F5F008E222E5832AF58399
:081BDD00E993F5F0A3E993225E
:101BE500E88FF0A4CC8BF0A42CFCE98EF0A42CFC9F
:101BF5008AF0EDA42CFCEA8EF0A4CDA8F08BF0A41D
:101C05002DCC3825F0FDE98FF0A42CCD35F0FCEB7B
:101C15008EF0A4FEA9F0EB8FF0A4CFC5F02ECD3940
:0F1C2500FEE43CFCEAA42DCE35F0FDE43CFC22AD
:101C340075F008758200EF2FFFEE33FECD33CDCC67
:101C440033CCC58233C5829BED9AEC99E5829840EA
:101C54000CF582EE9BFEED9AFDEC99FC0FD5F0D6C7
:101C6400E4CEFBE4CDFAE4CCF9A88222B800C1B9F1
:101C74000059BA002DEC8BF084CFCECDFCE5F0CB2F
:101C8400F97818EF2FFFEE33FEED33FDEC33FCEB68
:101C940033FB10D703994004EB99FB0FD8E5E4F923
:101CA400FA227818EF2FFFEE33FEED33FDEC33FC10
:101CB400C933C910D7059BE99A4007EC9BFCE99A04
:101CC400F90FD8E0E4C9FAE4CCFB2275F010EF2F49
:101CD400FFEE33FEED33FDCC33CCC833C810D70749
:101CE4009BEC9AE899400AED9BFDEC9AFCE899F884
:0E1CF4000FD5F0DAE4CDFBE4CCFAE4C8F92217
:101D0200EB9FF5F0EA9E42F0E99D42F0EC6480C858
:061D120064809845F022F8
:101D1800EB9FF5F0EA9E42F0E99D42F0E89C45F021
:011D28002298
:101D2900E8600FECC313FCED13FDEE13FEEF13FF98
:031D3900D8F122BC
:101D3C00E8600FEFC333FFEE33FEED33FDEC33FC05
:031D4C00D8F122A9
:101D4F00BB010DE58229F582E5833AF583021DD7A4
:101D5F005007E92582F8021D7FBBFE07E92582F8AF
:101D6F00021DE3E58229F582E5833AF583021DEF33
:0C1D7F00E6FC08E6FD08E6FE08E6FF2290
:0D1D8B00E6FB08E6F908E6FA08E6CBF822C8
:0C1D9800ECF608EDF608EEF608EFF62277
:0C1DA400ECF0A3EDF0A3EEF0A3EFF022B2
:101DB000D083D082E493F608740193F608740293FA
:091DC000F608740393F674047331
:10000300EFB40A07740D12000E740A309811A89900
:10001300B8130CC2983098FDA899C298B811F6305D
:0700230099FDC299F5992235
:10178200E577246BF8E60577227868300702786BF4
:10179200E475F001121DFF021ADE2000EB7F2ED24B
:1017A200008018EF540F2490D43440D4FF30040B3F
:1017B200EF24BFB41A0050032461FFE578600215DC
:1017C20078057BE57B7002057A30070D7868E47551
:1017D200F001121DFFEF021B240200037403D20763
:1017E2008003E4C207F5778B688A69896AE4F57831
:1017F200F57AF57BE57860077F201217BD80F575D5
:1018020079FFC201C200C202C203C205C206C208F7
:1018120012178BFF700D3007057F001217CEAF7BBA
:10182200AE7A22B4255FC2D5C20412178BFF24D030
:10183200B40A00501A75F00A787830D50508B6FF58
:101842000106C6A426F620D5047002D20380D9244C
:10185200CFB41A00EF5004C2E5D2040219CED2016D
:1018620080C6D20080C0D20280BCD2D580BAD20556
:1018720080B47F201217BD2002077401B5780040A2
:10188200F1121782FF1217BD0217F6D208D2068094
:1018920095121782FB121782FA121782F94A4B70BD
:1018A20006799F7A1A7BFF20022EE578602A7E0055
:1018B2008E82758300121AF760060EEE657970F05B
:1018C200C2D5EBC0E0EAC0E0E9C0E0EE121A15D0E2
:1018D200E0F9D0E0FAD0E0FB121ADEFF60AAEBC01A
:1018E200E0EAC0E0E9C0E01217BDD0E02401F9D07F
:1018F200E03400FAD0E0FBE5790460DCD579D980E8
:10190200877BFF7A1A7911D202809C791080027942
:1019120008C206C2088008D2D5790A8004790AC2B0
:10192200D5E579047002F579E4FAFDFEFF1217821B
:10193200FC7B08200113121782FD7B1030000A1273
:101942001782FE121782FF7B20EC3382D592D5508C
:1019520013C3E43000069FFFE49EFEE42001039DD2
:10196200FDE49CFCE4CBF8C201EC700CCFCECDCCF4
:10197200E824F8F870F38017C3EF33FFEE33FEED7F
:1019820033FDEC33FCEB33FB994002FB0FD8E9EB60
:10199200300105F8D0E0C448B201C0E00AEC4D4E77
:1019A2004F78207B0070C2EAB5790040BCC0E012DB
:1019B2001A17D0F0D0E0200104C4C0E0C4B201C0C4
:1019C200F01217A6D0F0D5F0EB0217F6121E0F1880
:1019D2009353190D5818644C18604219114F191974
:1019E20044191949187943191F5519034619034512
:1019F2001903471ABF5018682D186C2E188F2B1810
:101A02007023188D201AAD2A182848000018873F25
:101A12003F3F00790AA2D5200314300509B910020C
:101A22000404B9080104A2D52006025001042002D0
:051A3200689202B57886
:101A3700005034C0E07F203003197F30A2027206C5
:101A47007205500F121A6EC202C206C205C2087F83
:101A570030800F300503E9C0E01217BD300503D011
:101A6700E0F9D0E0B578CC3005177F30B9100C120B
:101A770017BD7F583004077F788003B90803121712
:101A8700BD3002057F2D0217BD7F202008F87F2B70
:101A97002006F322920280CF286E756C6C29002DE8
:101AA70050434958D2011217823001F8C2017878A1
:101AB70030D50108F60218281217822403B405004E
:101AC7004001E4901AA6931217AE743A1217AED2D9
:071AD7000375780402190DEC
:103064008B548A558956AB54AA55A956121ADEFFB9
:10307400123A80500D74012556F556E43555F55530
:1030840080E4D200AB54AA55A956121ADEFF642B71
:103094006004EFB42D1BAB540556E556AA557002D7
:1030A400055514F9121ADE642D6003D38001C3920E
:1030B40000E4F55AF559F558F557AB54AA55A956F5
:1030C400121ADEFF123AA4505CE47F0AFEFDFCAB48
:1030D4005AAA59A958A857121BE5C8ECC8EDC0E074
:1030E400EEC0E0EFC0E0AB54AA55A956121ADEFFB9
:1030F4003395E0FEEF24D0FFEE34FFFEE4FCFDD078
:10310400E0FBD0E0FAD0E0F9EB2FF55AEA3EF559AE
:10311400ED39F558EC38F55774012556F556E43574
:1031240055F555809530000AAF5AAE59AD58AC5795
:0E313400800BAF5AAE59AD58AC57121DC922D0
:0E1DC900C3E49FFFE49EFEE49DFDE49CFC222B
:0C1DD700E0FCA3E0FDA3E0FEA3E0FF227F
:0C1DE300E2FC08E2FD08E2FE08E2FF223C
:101DEF00E493FC740193FD740293FE740393FF223A
:101DFF00FAE6FB0808E6F925F0F618E6CA3AF622E5
:101E0F00D083D082F8E4937012740193700DA3A362
:101E1F0093F8740193F5828883E473740293686076
:061E2F00EFA3A3A380DF76
:0F3AA400EFC394304007EF943A50028001C322E1
:103A8000EFC394094005EF940E4003BF2003D38099
:033A900001C3224D
:00000001FF
